:020000040000FA
:1000000030530020150400001D04000035020000DC
:10001000210400002304000025040000000000006B
:1000200000000000000000000000000027040000A5
:1000300029040000000000002B0400002D04000033
:10004000990900002F040000FD0B00002F040000A0
:100050002F0400002F040000090600002F040000F8
:100060002F0400002F0400002F0400002F040000C4
:100070002F0400002F0400002F0400002F040000B4
:100080002F040000A50900002F0400002F04000029
:100090002F0400002F0400002F0400002F04000094
:1000A0002F0400002F0400002F0400002F04000084
:1000B0002F0400002F0400000000000000000000DA
:1000C0002F0400002F0400002F0400002F04000064
:1000D0002F0400002F0400002F040000510C00002A
:1000E0002F0400002F0400002F0400000000000077
:1000F000000000002F040000000000002F0400009A
:1001000000000000000000000000000000000000EF
:1001100000000000000000000000000000000000DF
:1001200000000000000000000000000000000000CF
:1001300000000000000000000000000000000000BF
:1001400000000000000000000000000000000000AF
:10015000000000000000000000000000000000009F
:10016000000000000000000000000000000000008F
:10017000000000000000000000000000000000007F
:10018000000000000000000000000000000000006F
:10019000000000000000000000000000000000005F
:1001A000000000000000000000000000000000004F
:1001B000000000000000000000000000000000003F
:1001C000000000000000000000000000000000002F
:1001D000000000000000000000000000000000001F
:1001E000000000000000000000000000000000000F
:1001F00000000000000000000000000000000000FF
:10020000DFF810D000F0A4F900480047913D00004D
:10021000AFF300803053002000B583B0029000910E
:10022000019244F2010071466A4601F0C9F903B037
:1002300000BD0000094B1EF0040F1CBFEFF3098046
:100240001847EFF308800649064A884201D89042D1
:1002500002D88D464FF0000018470000C906000084
:10026000305300203033002030B4044654E8000FEF
:100270000D4644E80053002BF8D1156030BC7047A0
:1002800030B4044654E8000F40EA010544E8005346
:10029000002BF7D1156030BC704730B4044654E8E9
:1002A000000F00EA010544E80053002BF7D1156068
:1002B00030BC704730B4044654E8000F80EA0105B2
:1002C00044E80053002BF7D1156030BC704730B4C0
:1002D000044654E8000F00EB010544E80053002BEE
:1002E000F7D1156030BC704730B4044654E8000FB5
:1002F000A0EB010544E80053002BF7D1156030BC9A
:10030000704770B404464FF0000054E8006F0D6869
:10031000AE4207BF44E80023012044E800630E60BA
:10032000002B1CBF0020F0E770BC704730B40446BF
:1003300054E8000F88422CBF451A054644E8005394
:10034000002BF5D1156030BC7047000030B450E888
:10035000012F93B2C48923448489A34228BF1B1B65
:100360000489A34202BFBFF32F8F002007E0C3EA36
:10037000020340E80134002CE9D14FF001000A608B
:1003800030BC704750E8012FC2EA024240E8012128
:100390000029F7D1704730B450E8022F1FFAA2F3BA
:1003A000C488A34202BFBFF32F8F00200DE0C48991
:1003B00023448489A34228BF1B1BC2EA034340E8AD
:1003C0000234002CE8D14FF001000A6030BC7047C5
:1003D00050E8022FC2EA224240E802210029F7D168
:1003E0007047034653E8022FD988B2EB324F4FF0E3
:1003F000000017BF92B241EA014142EA014104E024
:100400005A68B2EB324F08BF012043E80212002ABB
:10041000E8D170470648804706480047FEE7FEE7F8
:10042000FEE7FEE7FEE7FEE7FEE7FEE7FEE7FEE7A4
:10043000CD090000010200000048704718BC000010
:1004400010B5431A934209D28318881803E010F8B4
:10045000011D03F8011D521EF9D210BD40EA01032F
:100460009B0703D009E008C9121F08C0042AFAD26A
:1004700003E011F8013B00F8013B521EF9D210BD18
:10048000D2B201E000F8012B491EFBD270470022D6
:10049000F6E710B513460A4604461946FFF7F0FF83
:1004A000204610BD421C10F8011B0029FBD1801A08
:1004B000704710B5002200E0521C835C8C5CA342A4
:1004C00001D1002BF8D1D8B2E1B2401A10BD30B53D
:1004D00005460020034600E05B1C934205D2EC5C1D
:1004E000C85C201A01D1002CF6D130BD2DE9F05F97
:1004F0000546002092469B46884606468146402493
:100500001BE0284641464746224600F042F8534643
:100510005A46C01A914110D311461846224600F09F
:1005200029F82D1A67EB01084F46224601200021C9
:1005300000F020F817EB00094E41201EA4F1010441
:10054000DFDC484631462A464346BDE8F09F0000BE
:10055000064C074D06E0E06840F0010394E8070010
:1005600098471034AC42F6D3FFF74EFE30CE000071
:1005700050CE0000202A04DB203A00FA02F10020CD
:1005800070479140C2F1200320FA03F319439040D1
:100590007047202A04DB203A21FA02F0002170473C
:1005A00021FA02F3D040C2F12002914008431946DB
:1005B000704770B58C1810F8015B15F0070301D176
:1005C00010F8013B2A1106D110F8012B03E010F8B6
:1005D000016B01F8016B5B1EF9D12B0705D40023D9
:1005E000521E0DD401F8013BFAE710F8013BCB1A7B
:1005F000921C03E013F8015B01F8015B521EF9D570
:10060000A142D8D3002070BD2DE9FC470026002070
:10061000009001904FF480770125002410E03846C7
:1006200005F0E8FC40B100BF25480068284018B13B
:10063000384605F0D1FC2E436D00381D87B2641C8E
:10064000082CECD34FF4BE7005F0D4FC50B14FF43D
:10065000BE7005F0C1FC46F000466A46022100204B
:1006600005F0B0FBF0B210B3012500241DE005EA4F
:100670000600C0B100BF134850F82400C0F30520A5
:10068000814600BF0F4850F82400C0F30140824665
:10069000204601F0D3FC8046B8F1000F02D051464D
:1006A0004846C04700BF6D00641C082CDFD306F02D
:1006B000004010B1684608F079F9BDE8FC870000F9
:1006C00004630040106500402DE9FC41074600BF6F
:1006D00006F0E8F800BF00BF05F0A8FD0028FBD138
:1006E00000BF00BF3C4658480668002C35D057482C
:1006F000408801280ADB5649564BC91AC90801230C
:1007000043EA014054A1A26905F040FF4F484088E8
:1007100001280FDBD4E90201CDE900014C494D4D20
:10072000491BC908012545EA014051A1D4E900232C
:1007300005F05CFF4548408801281CDBE06900901B
:100740004349444D491BC908012545EA014056A1CA
:10075000D4E9042305F036FF0DE03C484088012829
:1007600009DB3B493B4A891AC908012242EA014098
:1007700057A105F001FF3448001D006800F0020099
:1007800068B132484088012809DB3149314A891A69
:10079000C908012242EA01405A4905F0EDFE002550
:1007A00019E00120A8403040A0B1574850F825007A
:1007B00080B12648408801280CDB534951F8252098
:1007C0002349244BC91AC908012343EA01404FA118
:1007D00005F0DCFE6D1C1A2DE3D306F0800080B11D
:1007E0001A48408801280CDB17490C310A6818495F
:1007F000184BC91AC908012343EA014046A105F074
:10080000C5FE06F4004080B11048408801280CDB8A
:100810000D4910310A680E490E4BC91AC908012347
:1008200043EA014044A105F0B1FE00BF0648C830CC
:10083000006800F0010000B100BE00BF384600F0C3
:1008400089F8BDE8FC81000028ED00E0B802002036
:1008500008CF0000A8CE0000484152442046415530
:100860004C54206174203078253038580000000046
:10087000202052303A20203078253038582020521D
:10088000313A2020307825303858202052323A2012
:1008900020307825303858202052333A20203078C4
:1008A000253038580000000020205231323A2030E4
:1008B000782530385820204C523A20203078253086
:1008C000385820205053523A20307825303858007C
:1008D000537461636B2076696F6C6174696F6E3AF3
:1008E00020737461636B20706F696E746572206F22
:1008F00075747369646520737461636B20617265DC
:10090000612E000004BD00000001002043617573EA
:10091000653A2025732E00004D656D4D616E61674F
:1009200065204661756C7420416464726573733A26
:100930002030782530385800427573204661756C38
:100940007420416464726573733A203078253038BE
:100950005800000000BF00BF00BF00BF00BFBFF3D2
:100960004F8F00BF00BF00BF0948006800F4E0607F
:1009700008490843001D0649086000BF00BF00BFCA
:10098000BFF34F8F00BF00BF00BF00BF00BFFDE738
:100990000CED00E00000FA0510B507F0D3F907F000
:1009A00027F810BD10B5034A1068034A116888473C
:1009B00010BD0000F8000020F400002001480249AA
:1009C000086070470090D0036002002010B503F06B
:1009D00029FC40B10020794908604FF08041C1F8FE
:1009E00010017749086003F03BFC002855D075489A
:1009F0000068754908607348001D0068091D08609B
:100A0000704808300068091D08606E480C300068A6
:100A1000091D08606B4810300068091D08606948AE
:100A200014300068091D086066481830006866497F
:100A30002031086063481C300068091D0860614867
:100A400020300068091D08605E4824300068091DD8
:100A500008605C4828300068091D086059482C303F
:100A60000068091D08605748303000685649403119
:100A70000860544834300068091D08605148383017
:100A80000068091D08604F483C300068091D086077
:100A90004C4840300068091D086003F0FFFB10B1AE
:100AA0004A484B49086003F045FB10B1FB20494917
:100AB000086003F05DFB38B147480178474800689B
:100AC00061F303004549086003F070FB18B14FF46F
:100AD00000704349086003F087FB40B1414800685B
:100AE00000F0010018B16FF001003E4908603E4877
:100AF000006840F470003C49086000BF00BF00BFC0
:100B0000BFF34F8F00BF00BF00BF00BF00BF00BFDB
:100B1000BFF36F8F00BF00BF00BF3448006800F014
:100B2000004030B93148001D006800F00040002846
:100B300040D001202E49086000BF2E4800680028E0
:100B4000FBD012202949086000BF2A48006800280D
:100B5000FBD012212548001D016000BF2548006818
:100B60000028FBD000202249086000BF214800680F
:100B70000028FBD000BF00BF00BF00BF00BFBFF315
:100B80004F8F00BF00BF00BF17487C38006800F4DB
:100B9000E06019490843001D13497C39086000BF13
:100BA00000BF00BFBFF34F8F00BF00BF00BF00BF3B
:100BB00000BFFDE7FFF702FF10BD00000C01004081
:100BC000380500400404001020C50040488103009F
:100BD0008C56004018F5004058020010E40E00400A
:100BE000409602400004004088ED00E00012001032
:100BF00004E5014000E401400000FA0510B5054895
:100C0000006818B904A1512001F07EF80149086874
:100C1000804710BDB00000202E2E5C2E2E5C2E2EA4
:100C20005C6472765C6D6F64756C65735C6E726625
:100C3000785C647269766572735C7372635C7072FF
:100C4000735C6E7266785F7072732E6300000000D2
:100C5000F8B5F7480768002400200090F54E00BF63
:100C60001EE0012181403940C1B156F82010A9B1E0
:100C7000012181400C43002146F8201000BF00BF35
:100C800000BFBFF36F8F00BF00BF00BF00BF00BF3A
:100C900000BFBFF34F8F00BF00BF00BF411CC8B2F1
:100CA0001928DED304F0807000283ED0012522E010
:100CB000E148006805F1100101228A401040C0B1EE
:100CC000DD48006801228A401043DB490860DA48A9
:100CD000343050F8252005EB4503D84800EB83005D
:100CE0004168284606F0B2FD0121D248D83840F8C4
:100CF0002510681CC5B2072DDADD012513E0CE48AA
:100D000000680121A940084058B1CB480068012182
:100D1000A9400843C849086045F08001102009F047
:100D2000D1FC681CC5B2072DE9DD04F40000D0B386
:100D3000C2486C3002F044FA0120C049703981F891
:100D4000E800B1F8E200C11700EB9161891149B2E6
:100D5000BA4A703A82F8E510104690F8DC0000F0CC
:100D6000800070B91046B0F8E200002809DD0120CB
:100D7000B349C864104690F87020416F002006F017
:100D800065FDAE487038B0F8E20010B90120AC49FA
:100D90000865AA48703890F8DD00052803D00021C6
:100DA0000D2009F08FFC04F4800098B3A2486C3841
:100DB00000680090A0496C3900980860009800F421
:100DC000807038B101209C49C031086000210520A5
:100DD00009F078FC009800F4007018B10021072099
:100DE00009F070FC009800F4806098B101209249ED
:100DF0009C310860924988658D48006800F40010B5
:100E000018B900208B49543108604FF4001088490C
:100E1000091D086004F4001000285DD000208649F8
:100E2000A831096801F48071D1B301208349703978
:100E300091F8E610022919DA8049703991F8E61024
:100E4000491C7E4A703A82F8E6107B4954310968A1
:100E500001F4803151B91146D1F8D410794A1160AA
:100E6000754954310A687749091D0A607349703918
:100E700091F8E610022913D170497039D1F8D410D5
:100E8000704A11606C4954310A686E49091D0A6044
:100E900001216B4A916401226849703981F8D82098
:100EA0006549A431096801F4807171B10120634979
:100EB000703991F8E710012907D100215F4A703A93
:100EC00082F8E71001215E4A516220B94FF4001107
:100ED000574A0832116000BF04F4801070B15748BF
:100EE000703890F8D800012808D100215348703894
:100EF00080F8D8100821112009F0E4FB00250CE04F
:100F00004FF40050A840204028B1681C00F07F0139
:100F1000112009F0D7FB681CC5B2072DF0DB04F4E3
:100F2000805078B1444834300068402803D1012013
:100F30004349C86402E001204149086500210F20AF
:100F400009F0C0FB04F4806000287DD03B48703875
:100F500090F8DC00C011E8B3012876D1374870382A
:100F6000B0F8E20040280DD13448703890F8DD0028
:100F7000062807D131487038B0F8DE000121B1EB06
:100F8000202F2FD02D487038B0F8E200FF280DD167
:100F90002A48703890F8DD00062807D127487038B5
:100FA000B0F8DE000221B1EB202F1BD023487038AF
:100FB000B0F8E200FF280FD12048703890F8DD002B
:100FC000062809D11D487038B0F8DE000321B1EBC6
:100FD000202F00E042E005D018487038B0F8E20059
:100FE000402807D100210E2009F06CFB0120144994
:100FF000086532E011487038B0F8E200402825DD7D
:101000000E48703890F8E500401E40B20B49703928
:1010100081F8E50000210E2009F054FB07487038E4
:1010200090F9E500401CC0B901200549086514E0AD
:1010300000730240007102406C740240B012002044
:1010400000700240A077024012E010E000210E2064
:1010500009F038FB01202D49086508E02C4890F87C
:10106000DD00052802D001202849886200BF00BFAA
:10107000002001E0411CC8B20728FBDB04F002009D
:1010800078B1234890F8D80001280AD12048D0F838
:10109000D40009301F4908601F4801681D48001D21
:1010A000016004F0010080B301201B495431086045
:1010B000091F0860002009E000221449091D41F8B9
:1010C00020201249283141F82020401C0828F3DB59
:1010D00000200E4948628864104908600E48C038F4
:1010E00000680D49C039096808430B49C0390860D8
:1010F0000B4800680A49083108600A480349C1F8EA
:1011000004030021012009F0DDFAF8BD007002405F
:1011100040120020A0770240C07402405871024083
:10112000007302400714C0010FB4054B10B503A9AA
:10113000044A029800F018F810BC5DF814FB000097
:10114000233100008401002002E008C8121F08C1FA
:10115000002AFAD170477047002001E001C1121F38
:10116000002AFBD1704700002DE9FF4F8DB00F46DC
:101170000546002606E025280BD0DDE90F12904732
:101180006D1C761C28780028F5D111B03046BDE8DA
:10119000F08F0024A246A1460122E94900E0044361
:1011A00015F8013F203B02FA03F00842F7D12878F6
:1011B0002A2810D06FF02F022878A0F130010929D9
:1011C00014D80AEB8A0102EB410144F0020400EB5F
:1011D000010A6D1CF0E701CF5FEA000A03D544F471
:1011E0000054CAF1000A44F002046D1C28782E282D
:1011F00017D115F8010F44F004042A280ED06FF01F
:101200002F022878A0F1300109290AD809EB8901B9
:1012100002EB410100EB01096D1CF2E757F8049B5A
:101220006D1C28786C280FD006DC4C2817D0682855
:101230000DD06A2814D104E0742810D07A280FD178
:101240000DE044F400140AE044F4801401E044F496
:1012500040146978814202D104F580146D1C6D1C24
:1012600028786E281ED00CDC632830D004DC0028DF
:101270008BD0582811D19FE0642867D069280CD101
:1012800064E073282DD004DC6F2872D0702804D15C
:1012900094E075286ED078286DD0DDE90F12904764
:1012A000761C4BE1C4F30250022806D0032809D073
:1012B000042801CF09D0066040E101CFF117C0E951
:1012C00000613BE101CF068038E1067036E117F896
:1012D000040B8DF8000000208DF80100EB46012082
:1012E00003E057F804BB4FF0FF3061074FF00001F7
:1012F00002D40DE008F10101884649450FDA804526
:10130000F8DB1BF808100029F4D108E008F101010E
:1013100088468142FADB1BF808100029F6D1DDE986
:101320000F23AAEB08008146214600F031F9304432
:1013300000EB080604E0DDE90F121BF8010B9047F3
:10134000B8F10108F7D221464846F2E00A21C4F379
:1013500002524FF0000B0891022A04D001CFC117AE
:10136000032A09D00AE0FF1D27F00707F7E802016A
:1013700008E02CE01EE01FE000B2C117042A01D1F2
:1013800040B2C117021E71F1000206DA0023D0EB51
:10139000030063EB01012D2202E0220504D52B227C
:1013A0008DF82420012203E0E20701D02022F7E794
:1013B000904653E00A210BE0102109E010214FF084
:1013C000000B44F004044FF00809089103E00821E1
:1013D0004FF0000B0891C4F30252022A04D001CF4F
:1013E0000021032A06D006E0FF1D27F00707F7E8D3
:1013F000020103E080B2042A00D1C0B24FF000081D
:1014000022072BD52A78702A07D0DDF820C08CF06F
:10141000100C5CEA0B0C05D00EE040228DF8242065
:10142000012208E050EA010306D030238DF8243071
:101430008DF8252002229046089B83F0080353EA8A
:101440000B030BD150EA010201D1620706D530220D
:101450008DF824204FF00108A9F101092A78582AB3
:1014600004D038A20B9208AA0A920BE03AA2F9E73C
:101470005B46089AFFF73AF80B9B9B5C0A9A521E50
:101480000A92137050EA0102F2D10A98ADEB000003
:1014900000F1200B600702D524F4803401E04FF006
:1014A0000109D94502DDA9EB0B0000E0002000EBAB
:1014B0000B0141440890AAEB010AE00306D4DDE9E0
:1014C0000F232146504600F063F806444FF0000910
:1014D00008E009A911F80900DDE90F12904709F1A8
:1014E0000109761CC145F4DBE0030CD5DDE90F23CF
:1014F0002146504600F04CF8064404E0DDE90F12A6
:1015000030209047761C0899481E08900029F5DC89
:1015100008E00A980A990078491C0A91DDE90F123F
:101520009047761CBBF10001ABF1010BF1DC2146C9
:101530005046DDE90F2300F019F806446D1C21E642
:101540000928010030313233343536373839616299
:10155000636465660000000030313233343536375D
:101560003839414243444546000000002DE9F0412E
:10157000044600251E461746880404D405E0394673
:101580002020B0476D1C641EF9D52846BDE8F081C7
:101590002DE9F041044600251E469046C80301D5BA
:1015A000302700E02027880404D505E0414638466E
:1015B000B0476D1C641EF9D52846BDE8F0810000D7
:1015C0002DE9FE4307460D46164672B600BF05F0EC
:1015D00069F900BF00BF04F029FE0028FBD100BF5D
:1015E00000BF6FF480403844B0B101283CD134468C
:1015F0002D48408801280EDB2C49DFF8B4C0A1EB50
:101600000C01C9084FF0010C4CEA014029A1D4E9B2
:10161000003204F0C7FF37E03446234840880128F1
:1016200013DBA06806F054F88046D4E900108DE87A
:1016300023001E491E4BC91AC908012343EA014071
:10164000434623A1A26804F0E7FF17484088012819
:1016500009DB1649164A891AC908012242EA0140E3
:1016600025A104F089FF0FE00F48408801280ADB1C
:101670000E490F4A891AC908012242EA01402A4646
:1016800022A104F083FF00BF00BF00BF254800680F
:1016900000F0010000B100BE00BF324629463846C6
:1016A00000F042F8BDE8FE83CC02002030CF0000FD
:1016B000A8CE0000415353455254494F4E20464155
:1016C000494C45442061742025733A25750000007B
:1016D0004552524F52202575205B25735D20617461
:1016E0002025733A25750D0A50432061743A203045
:1016F0007825303878000000456E64206F662065DC
:1017000072726F72207265706F727400554E4B4E1C
:101710004F574E204641554C542061742030782557
:1017200030385800F0ED00E018B5012300939DF823
:1017300000301E4B186059609A606FF48043034478
:1017400063B1012B19D1194BDA60DB681B68174CA8
:10175000A3612346DB685B68E3610EE0134B1A610B
:101760001B699B68114C636123461B691B68A3615D
:1017700023461B695B68E36100BF00BF0B4B1B681E
:101780000A4B5B68094B9B68084BDB68074B1B697E
:10179000064B5B69054B9B69044BDB6972B600BF66
:1017A0009DF80030002BFBD162B618BDC4090020A3
:1017B00070B504460D46204601F00DFC28B12946BF
:1017C000204601F0F7FB002070BD0520FCE7034632
:1017D00009B90E20704712B1501E104008B10920FF
:1017E000F8E71960501E988000209860D86000BF0C
:1017F000F0E770B504460D46204601F0ECFBA188E9
:10180000884205D82946204601F0F3FB002070BD30
:101810000420FCE70246501A20F07F407047000089
:1018200010B5024801F02EF910BD0000B8000020EC
:101830002DE9F04105460F46144625B90CA140F2AA
:101840002E2000F061FA24B909A140F22F2000F007
:101850005BFA14B90720BDE8F0812E687461012F8E
:1018600001D1012000E0002030610020F3E70000FA
:101870002E2E5C2E2E5C2E2E5C6472765C636F6D59
:10188000706F6E656E74735C6C69627261726965AB
:10189000735C74696D65725C6170705F74696D65AD
:1018A00072322E630000000038B5134800680090C3
:1018B0000823582211491248006802F00DFD044621
:1018C0000CB1204638BD0F4A69460F4801F0E0F8D8
:1018D00004460CB12046F5E701210B4801F0E6F97A
:1018E00001230A4A1946084801F07EF801200849F8
:1018F00008702046E6E7000058B60000E409002022
:1019000048B60000D78B0000B8000020FFFF7F0022
:10191000C40000202DE9F04106460D46174626B9C1
:101920000DA140F23E2000F0EFF9344694F820007B
:1019300010B10020BDE8F081A76101F023FC40193F
:1019400041F10001C4E90201206900B1256121468D
:10195000002007F017FDEDE72E2E5C2E2E5C2E2EBC
:101960005C6472765C636F6D706F6E656E74735CD1
:101970006C69627261726965735C74696D65725CD1
:101980006170705F74696D6572322E6300000000D3
:1019900070B5044624B907A14FF4157000F0B4F9EE
:1019A0002546002085F820002946012007F0EAFCA2
:1019B00070BD00002E2E5C2E2E5C2E2E5C64727686
:1019C0005C636F6D706F6E656E74735C6C69627270
:1019D00061726965735C74696D65725C6170705F7A
:1019E00074696D6572322E63000000002DE9F041CC
:1019F00088B004460E46174698462B4807601EB925
:101A0000072008B0BDE8F081B08882B2274831686D
:101A1000FFF7DDFE054600BF284600B1F1E700BF35
:101A2000B08982B22248B168FFF7D1FE054600BFF7
:101A3000284600B1E5E700BF20221E496846FEF7B0
:101A4000FFFC60690690207C08B1012000E00020C6
:101A50008DF814008DF81C80607C08B10E2000E029
:101A600000208DF81500E0680290A06803902068BF
:101A7000019060680090104A6946104803F084FEA7
:101A8000054600BF284600B1BBE700BF00200C4957
:101A900008702068401C28B101220A49074803F059
:101AA000DBFEAEE70020ACE77C0100203C0A002012
:101AB0004C0A0020DCB90000D99500006801002024
:101AC00082010020810100202DE9F04105462946D0
:101AD0001448FFF78EFE064606BB134C00272078FD
:101AE0001249085C20B1201D06F030FE074608E0D0
:101AF00020780E49085C20B904F10C0006F0F2FBD6
:101B0000074600BF57B90A490648FFF751FE28B9F2
:101B100001220749044803F0E3FE06463046BDE8CB
:101B2000F08100004C0A0020680100209000002095
:101B30008001002010B5044607F020F8012803D0EA
:101B400003A1432000F0E0F800F04CF810BD0000C5
:101B50002E2E5C2E2E5C2E2E5C6472765C636F6D76
:101B6000706F6E656E74735C6C69627261726965C8
:101B7000735C7574696C5C6170705F7574696C5FBF
:101B8000706C6174666F726D2E63000010B5044650
:101B900006F0F4FF012803D003A1512000F0B4F8AF
:101BA00000F02AF810BD00002E2E5C2E2E5C2E2E8A
:101BB0005C6472765C636F6D706F6E656E74735C7F
:101BC0006C69627261726965735C7574696C5C6181
:101BD00070705F7574696C5F706C6174666F726D44
:101BE0002E63000072B603480068401C014908607B
:101BF00070470000F000002004480068401E0349C0
:101C000008600846006800B962B67047F00000201E
:101C100070B505460C462068401C28B1206804F0C9
:101C2000BBF9206804F098F86068401C18B10021E6
:101C3000606804F077F82868A169C0F8241500BF2F
:101C4000617D227D286841EA0203C0F86C3500BF3F
:101C5000D4E90012286805F075FD207D012814D113
:101C6000A068401C18B10021A06804F05BF8E0688F
:101C7000401C28B1E06804F08FF9E06804F06CF8CB
:101C8000D4E90221286805F045FD70BD70B5054610
:101C90000C462068401C28B1206804F08AF92068AE
:101CA00004F066F86068401C18B10021606804F018
:101CB00046F82868A169C0F8241500BF617D227D1F
:101CC000286841EA0203C0F86C3500BFD4E900126D
:101CD000286805F071FD207D012814D1A068401C02
:101CE00018B10021A06804F02AF8E068401C28B16F
:101CF000E06804F05EF9E06804F03AF8D4E9022103
:101D0000286805F03AFD70BD7CB505460C46009587
:101D100001946A46002144F20200FFF751FC7CBDA9
:101D20002DE9F04106460B480B49401A07090025EA
:101D30000BE0094800EB05143046A168FEF7B9FB3B
:101D400010B92046BDE8F0816D1CBD42F1D30020E2
:101D5000F8E70000A8CE000088CE000070B503466A
:101D60000025CD604D600E4D8D6000250D60002476
:101D700000220DE00B4D05EB0210C5682D79FF2DFB
:101D800005D0A34202D185680D6007E0641C521C97
:101D9000054D044EAD1BB2EB151FEBD300BF70BD5C
:101DA00044BA000088CE0000A8CE00002DE9F84F0C
:101DB00004460D461646A71C4FF001080020FFF709
:101DC000B9FE3048406828602E4840682D4989682F
:101DD000411A2D480068401CA0EB010915E00121C3
:101DE0002A4802F0E1FA01F0A7FE82465146274850
:101DF00002F0DAFA2348406822498968411A2248E9
:101E00000068401CA0EB010900BF4F45E7D8B8F1BE
:101E1000000F30D00021009176B1009921F003012C
:101E2000491C0091009921F00401091D00910099BD
:101E300064F3891100910DE0009921F00301891CE0
:101E40000091009921F00401091D0091009964F3AB
:101E50009F5100910B4949680B4A12681140094A89
:101E60000C3202EB8100009901600649496839444F
:101E70000C3A516000BF0020FFF788FE4046BDE8E5
:101E8000F88F0000F40B0020BC010020101000208F
:101E900070B504460D460A2D03D10D212046FFF7EB
:101EA000F7FFA168481CA06020684554D4E90110E0
:101EB000884202D3204603F08DFD70BD044880683F
:101EC00003494968884201D1012070470020FCE79E
:101ED000F40B00202DE9F04104460D4616466078CB
:101EE000202804D0212826D0222829D113E01E48FA
:101EF00029680A6802608A888280897981718446AB
:101F00009CF804309CF805209CF80610DCF80000D2
:101F100007F0CCFE24E0A0781349C871A07800F047
:101F20000107A078C0F34008384607F0B3FE4046EA
:101F300007F0BDFE14E00C482860072030600FE079
:101F400000BF0AA0FFF7F0F861780CA0FFF7ECF8EB
:101F500014A0FFF7E9F800BF4FF0FF30BDE8F081B3
:101F600000BF0020FAE70000741100201B5B333330
:101F70006D5B572F5553425D20000000556E686120
:101F80006E646C65642043444320436C617373202A
:101F90006252657175657374203078253032780D22
:101FA0000A0000001B5B306D000000000EB5074802
:101FB000007850B106A207CA8DE8070000230A2264
:101FC0006946812008F01EFB00BF0EBD7C0000208A
:101FD00031323334353132333435000010B50B48EB
:101FE00007F03AFF0A490B4807F062FE0A49094820
:101FF00007F05EFE0949084808F0B9FC08490648A0
:1020000008F0B5FC08F0AEFC10BD0000F0B4000014
:10201000BC080020B0080020D80800206400002080
:102020007000002070B504460D46012C02D107F067
:1020300023FE00E000BF00BF70BD00000146024863
:1020400050F821007047000058090020014601485F
:10205000405670478809002010B5044624B909A1EC
:102060004FF4EA70FFF750FE206920B905A14FF444
:10207000EA70FFF749FE0F4A0FA1206903F068FCE0
:1020800010BD00002E2E5C2E2E5C2E2E5C6472760F
:102090005C636F6D706F6E656E74735C6C69627299
:1020A00061726965735C636C695C6E72665F636CB8
:1020B000692E630016B80000257300000146886889
:1020C000D0F84801C0F3C000704700002DE9F0438C
:1020D0008FB004460F464FF00009E16849680022BE
:1020E00008680EA904F05AFD18B100200FB0BDE831
:1020F000F083A7B10E9804F0BCFCA068D0F83801BA
:10210000401CA168C1F83801A06890F8380100F0BF
:102110000700012801D1814601E00120E6E72046C1
:1021200001F0D8FF0546A878012805D9A878401EF7
:10213000C1B2204600F01CFC2878012805D9287877
:10214000401EC1B2204600F031FB2046FFF784FF5D
:10215000B9F1000F06D037A20221204602F068FF35
:102160000120C3E700BF4FF00008434608220BA937
:102170000E9804F08DFC4FF008080D980890BDF8FB
:102180003000ADF82400BDF83200ADF82600002084
:102190008DF829000B9800F00300012818D10B9846
:1021A000860A0B98C0F3C2008DF828000B98C0F384
:1021B0008315AA00434602A90E9804F069FC206921
:1021C00008AB2A4602A90090304604F083FB23E0C6
:1021D0000B9800F0030002281ED10B98860D0B9877
:1021E000C0F3C2008DF8280000BF082E01D230468F
:1021F00000E00820054643462A4606A90E9804F04A
:1022000047FCA844761B08AA294606A8236904F0BF
:102210001FFA002EE9D100BF0E9804F02AFCE168F5
:102220004968002208680EA904F0B8FC00289AD07A
:1022300001205BE74C6F7374206C6F6773202D2057
:10224000696E637265617365206C6F67206261639C
:102250006B656E642071756575652073697A652E8E
:102260000A00000070B504460D462A4602A1206906
:1022700003F06EFB70BD0000256300002DE9F04106
:1022800004460D4616461F4604B125B90BA140F27F
:102290002310FFF739FD606820B908A14FF4927050
:1022A000FFF732FD606801683B463246D1F810C046
:1022B0002946E0478046BDE8F08100002E2E5C2EC6
:1022C0002E5C2E2E5C6472765C636F6D706F6E6533
:1022D0006E74735C6C69627261726965735C636C65
:1022E000695C6E72665F636C692E630010B50446AC
:1022F0000CB9002010BD2046FEF7D4F8FAE7000024
:102300002DE9F04106460F4634460025606890F8F6
:10231000280058B1A1680868FFF73AFB054625B1C7
:10232000082D02D02846BDE8F08100259FB16069E4
:1023300003F0F8FA626802F108010022606903F014
:1023400023FA05462DB90120616881F82900002093
:10235000E9E70620E7E7606890F8280048B9084AEE
:102360000021A068FFF764FA05460120616881F842
:1023700028001DB9204606F04BFD05462846D2E749
:10238000BD9200002DE9F04706460D4617469846D7
:102390003446606807606068C0F8048000206168A7
:1023A00081F82800616881F82900A946616801F177
:1023B000080020224946FEF743F8C9F81040094AB0
:1023C0004946606903F0E0F98246BAF1000F05D191
:1023D000E06805F035F8206905F032F85046BDE8B0
:1023E000F0870000B19400002DE9F04705468846CB
:1023F00016461C461CB907A1F820FFF785FC2F469E
:10240000266022464146F86804F0AAFE8146484606
:10241000BDE8F0872E2E5C2E2E5C2E2E5C6472762C
:102420005C636F6D706F6E656E74735C6C69627205
:1024300061726965735C636C695C756172745C6E12
:1024400072665F636C695F756172742E6300000071
:1024500070B504462546686903F064FAA9680868FF
:10246000FFF796FA70BD00002DE9FC5F80468A46B2
:1024700091461E4626B922A14FF48670FFF744FC10
:102480004446C6F8009032465146206904F0DCFE0E
:102490000746002F31D16569834628782749085CB3
:1024A00020B1281D06F052F9834608E02878234918
:1024B000085C20B905F10C0005F014FF834600BF4D
:1024C000BBF1000F19D1FF20009001236A4601A93A
:1024D000206904F043FF78B90099CAB26069019994
:1024E00003F0DCF90746606890F8290020B11FB9B5
:1024F0002069009904F016FF00BF3846BDE8FC9F34
:102500002E2E5C2E2E5C2E2E5C6472765C636F6DBC
:10251000706F6E656E74735C6C696272617269650E
:10252000735C636C695C756172745C6E72665F6328
:102530006C695F756172742E63000000900000206A
:102540002DE9F84304460E4615461F4604B11EB950
:1025500024A1F420FFF7D8FB6068006818B921A116
:10256000F520FFF7D1FB4FF0000833E006EB080140
:10257000606802686B46D2F80CC02A46E047814684
:10258000B9F1000F03D017A1FF20FFF7BDFB0098A2
:10259000854204D213A14FF48070FFF7B5FB009879
:1025A000804400982D1A009898B9A06800780328F4
:1025B0000FD000BFA068D0F84801C0F34010002839
:1025C000F8D0A068D0F8480120F02000A168C1F838
:1025D000480100BF002DC9D10FB100983860BDE897
:1025E000F88300002E2E5C2E2E5C2E2E5C647276FC
:1025F0005C636F6D706F6E656E74735C6C69627234
:1026000061726965735C636C695C6E72665F636C52
:10261000692E630070B505460DB9094C01E0084C00
:10262000083409E0204601F02BF8064606B904E01C
:1026300028467168884700BFF4E700BF70BD0000FE
:10264000FC08002010B504462CB90120064948704A
:102650000020FFF7DFFF012C04D101200249887020
:10266000FFF7D8FF10BD0000F40800202DE9F05F4F
:102670000546894616461C460A9F24B92AA14FF4EE
:102680009C70FFF741FB27B927A140F23910FFF7F3
:102690003BFBB9F1000F27D12F483049401AB6EB68
:1026A000D00F1ED24FF0000ADFF8B4B0D04611E0D0
:1026B0002A4800EBC80ADAF804205BF82600116803
:1026C000FDF7F7FE20B9DAF804002060BDE8F09FBE
:1026D00008F1010820482149401AB8EBD00FE7D390
:1026E00000BF00202060F1E715B900202060EDE771
:1026F000287850B1394630466A689047386810B932
:10270000002020600DE027600BE0686800EB0610F9
:10271000006820B1686800EB0610206001E000202E
:10272000206000BFD2E700002E2E5C2E2E5C2E2EE5
:102730005C6472765C636F6D706F6E656E74735CF3
:102740006C69627261726965735C636C695C6E72FC
:10275000665F636C692E630088CE000050CE000077
:102760006C0200202DE9F047024613468C46D3E95F
:102770000245DCE90267B6EB040877EB050002D3FB
:102780000120BDE8F0870020FBE7000070B505469A
:102790000C46002C04DD224602A1286903F0D8F87B
:1027A00070BD00001B5B25644200000070B505464B
:1027B0000C46002C04DD224602A1286903F0C8F86B
:1027C00070BD00001B5B25644400000010B504468A
:1027D00002A1206903F0BCF810BD00000A0000004F
:1027E0002DE9FC5F0446002600270020009000250C
:1027F000A16801F1A0008021FDF749FE524920693E
:1028000003F0A6F8204606F0DEFDA94696E000BFDC
:1028100001AB012269462046FFF730FD019868B9F7
:1028200040F2E738B8F1000F00D106E0DFF81CA154
:102830004FEA881B5846D04700BF77E09DF800005C
:102840001B2805D0A06890F8A0001B2800D06DE0E0
:102850009DF80000522858D10021A068A0304155B1
:10286000A06890F8A1005B2806D00020A16881F83C
:10287000A0000B20BDE8FC9F02250FE0A068A0305F
:1028800029466A1CD5B2405C303807EB870100EB63
:10289000410087B2802D01DB0C20EBE7A068A0305F
:1028A000405D3B28EAD1681CC0B20546802801DBA8
:1028B0000C20DFE70FE0A068A03029466A1CD5B2E3
:1028C000405C303806EB860100EB410086B2802D7B
:1028D00001DB0C20CEE7A068A030405D0028EAD1E3
:1028E000FA2E03D9FA20A168087501E0A1680E75D7
:1028F000FA2F03D9FA21A068817501E0A0688775D5
:102900000020A16881F8A000B4E79DF80010A0683D
:10291000A0304155681CC0B20546092805D90020E1
:10292000A16881F8A0000420A4E700BF0198002856
:102930007FF46EAF09F101001FFA80F9B9F57A7FD3
:10294000FFF665AF0D2095E720B8000011B8000034
:1029500070B505460C46002C04DD224602A128690C
:1029600002F0F6FF70BD00001B5B25644300000011
:1029700070B505460C46002C04DD224602A12869EC
:1029800002F0E6FF70BD00001B5B25644100000003
:1029900010B50021034801F033FD044684F3100014
:1029A00010BD00001010002070B505460C464FF415
:1029B000803000FA04F1284600F074FA70BD70B55A
:1029C00004460D462946206804F068FD70BD70B5C8
:1029D00005460C464FF4A07000EB840086B23146E9
:1029E000284600F0B9FA70BD2DE9F04704460D46BF
:1029F00016461F461CB916A19620FFF785F94FF41D
:102A0000803000FA05F84FF4A07000EB85001FFA43
:102A100080F926F07F464146206804F05BFD414680
:102A2000206804F051FD4946206804F046FD324616
:102A30002946206804F038FD4146206804F047FD2F
:102A40001FB14146206804F048FDBDE8F087000052
:102A50002E2E5C2E2E5C2E2E5C6472765C636F6D67
:102A6000706F6E656E74735C6C69627261726965B9
:102A7000735C74696D65725C6472765F7274632EE8
:102A80006300000010B50446206804F012FD10BD7C
:102A90002DE9F04704460D4616461CB943A15520C2
:102AA000FFF732F91DB941A15620FFF72DF91EB9E4
:102AB0003EA15720FFF728F96079494941F8206085
:102AC0006079484901EBC000007988B10827464881
:102AD0004088022809DB4549454A891AC90802226B
:102AE00042EA014043A103F047FD3846BDE8F087C4
:102AF000B5F80080D4F80090B8F5805F04D346A103
:102B00004FF4BE70FFF700F9C9F8088500BF94F9CB
:102B1000048095F80290B9F1080F03DB48A16B20FF
:102B2000FFF7F2F840464946002804DB4A07130E37
:102B30004E4A135408E04A074FEA126C4C4A00F020
:102B40000F031B1F02F803C000BF00BF94F904105D
:102B5000084600280DDB00BF00BF00F01F03012264
:102B60009A4043099B0003F1E023C3F8002100BF12
:102B700000BF00BF00BF012061791A4A02EBC1010A
:102B800008716079114641F83040002716484088A6
:102B9000032809DB1549164A891AC908032242EAA3
:102BA000014034A103F0E8FC38469FE72E2E5C2E4E
:102BB0002E5C2E2E5C6472765C636F6D706F6E653A
:102BC0006E74735C6C69627261726965735C74695E
:102BD0006D65725C6472765F7274632E63000000D0
:102BE000F4000020F8000020B0020020F8CE000021
:102BF000A8CE000052544320696E7374616E636501
:102C000020616C726561647920696E697469616CB8
:102C1000697A65642E0000002E2E5C2E2E5C2E2E0E
:102C20005C6472765C6D6F64756C65735C6E726605
:102C3000785C68616C2F6E72665F7274632E6800D8
:102C40002E2E5C2E2E5C2E2E5C6472765C696E7469
:102C50006567726174696F6E5C6E7266785C6E72C5
:102C600066785F676C75652E6800000000E400E020
:102C700018ED00E05254433A20696E697469616C42
:102C8000697A65642E00000010B5014691F90400D0
:102C9000002807DB00F01F0301229A40024B440981
:102CA00043F8242000BF10BD00E200E070B50546E7
:102CB0000C4622460221284600F020F970BD10B5CE
:102CC00004464FF48271204600F046F910BD000022
:102CD00010B504461CB904A18720FFF715F80021A0
:102CE000206804F0FDFB10BD2E2E5C2E2E5C2E2ED7
:102CF0005C6472765C636F6D706F6E656E74735C2E
:102D00006C69627261726965735C74696D65725C2D
:102D10006472765F7274632E6300000010B504461F
:102D20001CB904A18D20FEF7EFFF0421206804F0F8
:102D3000D7FB10BD2E2E5C2E2E5C2E2E5C64727680
:102D40005C636F6D706F6E656E74735C6C696272DC
:102D500061726965735C74696D65725C6472765FDB
:102D60007274632E630000002DE9F84F0446884614
:102D7000154699461CB93EA1CD20FEF7C5FF4FF47C
:102D8000803000FA08FA4FF4A07000EB88001FFAB8
:102D900080FB25F07F455146204600F083F82068EF
:102DA00004F087FB06464146206804F077FB00905C
:102DB00032464146206804F077FB5946206804F00B
:102DC0007CFB3146009806F019FA012806D1102044
:102DD00004F068FE5946206804F06FFB206804F098
:102DE00068FB06463146284606F008FA0746514673
:102DF000206804F06CFB012F0FD16A1C414620684B
:102E000004F052FB102004F04DFE206804F051FB4A
:102E1000B04225D00D20BDE8F88F2A4641462068F3
:102E200004F042FB206804F044FB0646681E31466D
:102E300006F0E4F907466FF07F40A0EB0900B842C6
:102E400001D20D20E7E75FB96A1C4146206804F013
:102E50002BFB206804F02DFBB04201D00D20DAE7F7
:102E600001225146204600F049F80020D3E7000037
:102E70002E2E5C2E2E5C2E2E5C6472765C636F6D43
:102E8000706F6E656E74735C6C6962726172696595
:102E9000735C74696D65725C6472765F7274632EC4
:102EA0006300000070B504460D461CB906A1B320AE
:102EB000FEF72AFF2946206804F006FB2946206811
:102EC00004F008FB70BD00002E2E5C2E2E5C2E2E12
:102ED0005C6472765C636F6D706F6E656E74735C4C
:102EE0006C69627261726965735C74696D65725C4C
:102EF0006472765F7274632E6300000070B50446DE
:102F00000E4615461CB907A1A920FEF7FDFE314665
:102F1000206804F0DCFA1DB13146206804F0DDFAC7
:102F200070BD00002E2E5C2E2E5C2E2E5C64727600
:102F30005C636F6D706F6E656E74735C6C696272EA
:102F400061726965735C74696D65725C6472765FE9
:102F50007274632E6300000070B504460D461CB900
:102F600007A1BA20FEF7D0FE2068415929B12946B1
:102F7000206804F0A2FA012070BD0020FCE70000E8
:102F80002E2E5C2E2E5C2E2E5C6472765C636F6D32
:102F9000706F6E656E74735C6C6962726172696584
:102FA000735C74696D65725C6472765F7274632EB3
:102FB0006300000070B504460D462A4600212046F5
:102FC00000F00EF8A068401CA06070BD01468A6841
:102FD000C868801A704701468A68C868801A7047B6
:102FE00010B583680B44848823400468E35C137045
:102FF00010BDC26883881A4003689954C268521C85
:10300000C26070472DE9F04780460D4617469A4644
:103010000DB9BDE8F087BAF1000F03D0F9B2404610
:10302000FFF796FC002400E0641CFDF705FA006839
:10303000295D405C00F001000028F5D16AE000261F
:103040002846FFF753F9A0EB0409D8F80800407EA2
:10305000C01B484522D300BF17E02819805D0A280D
:1030600012D1404606F0AFF92919002332464046F6
:10307000FFF766FA701C04444046FFF7A7FBF9B25D
:103080004046FFF765FC02E0761C4E45E5D300BFE5
:103090002919D8F8100002F05BFC3CE0D8F80800D1
:1030A000407EA0EB070916E0FDF7C6F90068291974
:1030B000895D405C00F0010028B1B1462819805DAF
:1030C0000A2800D108E0F119D8F80800407E8142B2
:1030D00000D301E0761CE7E700BF404606F073F935
:1030E000291900234A464046FFF72AFA4C4400E0DB
:1030F000641CFDF7A1F90068295D405C00F0010047
:103100000028F5D14046FFF761FBF9B24046FFF7D2
:103110001FFC00BF93E700BF4046FFF757FB00BF0F
:1031200077E770B504460D46E0B2FEF7CDFC2046C9
:1031300070BD000010B5002821D0114B0022001FE7
:10314000196803E0814203D80A4649680029F9D189
:1031500052B11368841A9C4204D10068184410606C
:10316000104602E0506000E0186039B102680B1AA6
:10317000934203D10B681A4402604968416010BD54
:103180006402002070B50B48FFF77CFC0A4B0CCBA7
:10319000841843F10005094903C9201A75EB0100A1
:1031A00004D24FF08073E41845F10005204629460B
:1031B00070BD0000B8000020C8000020D000002032
:1031C0001149096801701049091D096841700E49CB
:1031D000103109680C4A1432126841EA02218180D8
:1031E000094918310968084A1C32126841EA02216B
:1031F000C180054908310968034A0C32126841EA66
:1032000002214180704700008074024010B504F034
:103210008DFB10BD10B503460020002108E00724F7
:103220008C401C40CC40A2B2824200DD1046C91C3A
:103230000A29F4D310BD000070B502F0DFF904468E
:1032400000BF254635B100BF19A246212846FCF72C
:10325000E3FF00BF00BF002002F07EFA044600BF7B
:10326000254635B100BF12A248212846FCF7D4FFFD
:1032700000BF00BF002002F067F9002002F012FA40
:1032800000BF02F029F90028FBD002F0D9F900288C
:10329000F7D0FEF709FB044600BF254635B100BF55
:1032A00003A252212846FCF7B7FF00BF00BF70BD44
:1032B0002E2E5C2E2E5C2E2E5C6D61696E2E6300B0
:1032C0002DE9FC5F83460E4691461F46DDE90C451D
:1032D000002E01DA704200E0304682464FF00108CD
:1032E00003E09AFBF9FA08F10108CA45F9DA474503
:1032F00000D9B84634B1002E03DB05F004000428E1
:1033000000D1641E05F0020000B167B105F00100B4
:1033100048B944B104E0641E20215846FEF7B8FDC8
:103320000CB1A045F7D3002E05DA76422D21584680
:10333000FEF7AEFD07E005F00400042803D12B21C1
:103340005846FEF7A5FD05F0020002280DD105F054
:10335000010050B94FB944B104E0641E3021584611
:10336000FEF796FD0CB1A045F7D33B464A463146E1
:103370005846CDE9004506F055FBBDE8FC9F00002E
:1033800070B505461249286804F0CAF9286804F0A7
:1033900099FB04462046002817DB00F01F0201219C
:1033A00091400C4A430942F8231000BF00BF00BF00
:1033B000BFF34F8F00BF00BF00BF00BF00BF00BF03
:1033C000BFF36F8F00BF00BF00BF00BF00BF70BD65
:1033D0008402020080E100E070B5054612492868C9
:1033E00004F0D1F9286804F071FB04462046002857
:1033F00017DB00F01F02012191400C4A430942F8FB
:10340000231000BF00BF00BFBFF34F8F00BF00BF3E
:1034100000BF00BF00BF00BFBFF36F8F00BF00BF82
:1034200000BF00BF00BF70BD1003420080E100E09C
:103430002DE9F04104460F464FF48E71206804F0E8
:1034400062F94FF4A271206804F05DF91D4920680B
:1034500004F069F9206804F035FB05463E46082E65
:1034600003DB19A16B20FEF74FFC284631460028EC
:1034700004DB4A07130E1F4A135408E04A074FEAB9
:10348000126C1D4A00F00F031B1F02F803C000BF9F
:1034900000BF206804F016FB0546284600280DDB17
:1034A00000BF00BF00F01F020121914042099200BD
:1034B00002F1E022C2F8001100BF00BF00BF00BF50
:1034C000BDE8F081800002002E2E5C2E2E5C2E2E98
:1034D0005C6472765C696E746567726174696F6E44
:1034E0005C6E7266785C6E7266785F676C75652E6E
:1034F0006800000000E400E018ED00E02DE9F04174
:1035000004460F464FF48871206804F02FF94FF4F9
:103510009071206804F02AF94FF49271206804F049
:1035200025F94FF4A271206804F020F94FF4AC7132
:10353000206804F01BF91E49206804F027F9206870
:1035400004F0C4FA05463E46082E03DB19A16B20A1
:10355000FEF7DAFB28463146002804DB4A07130E43
:103560001F4A135408E04A074FEA126C1D4A00F044
:103570000F031B1F02F803C000BF00BF206804F048
:10358000A5FA0546284600280DDB00BF00BF00F065
:103590001F02012191404209920002F1E022C2F88B
:1035A000001100BF00BF00BF00BFBDE8F0810000F8
:1035B000100342002E2E5C2E2E5C2E2E5C64727642
:1035C0005C696E746567726174696F6E5C6E726659
:1035D000785C6E7266785F676C75652E68000000B7
:1035E00000E400E018ED00E030B50246002013785A
:1035F000C3F38003D3B1137803F00303012B02D08C
:10360000022B10D107E01388C3F383139B1C0C68B3
:1036100023440B6008E00B680225146805EB945402
:1036200023440B6000E000BF00BF012030BD00005C
:10363000034890F85D0108B1012070470020FCE7C5
:1036400014100020014601F07F0008B901207047E6
:103650000120FCE70246094881690AE0487802280F
:1036600005D10B461879904201DD0120704708789A
:10367000014408780028F1D100BFF7E714100020BA
:103680000146086808B102680A607047026803E0F2
:103690008A4200D170471268002AF9D103680BB141
:1036A000036800E000230B60016000BFF2E710B583
:1036B000044622460221002002F084FB002105E09E
:1036C00054F8210008B1012010BD491C0229F7D38C
:1036D0000020F9E770B504460D461646034B324606
:1036E0002946204601F092F870BD0000F538000030
:1036F00070B504460D461646034B32462946204611
:1037000001F084F870BD0000BD3A000070B50446B9
:103710000D461646034B32462946204601F076F800
:1037200070BD0000D33A000070B504460D46164641
:10373000034B32462946204601F068F870BD000070
:103740004D3C00007CB506460D461446012D03D0C5
:10375000304601F08CFE28B100221146304601F0BF
:10376000C7FC7CBD05A16068CDE9001009A202215B
:103770003046236801F05CFC00BFF2E720756E6BF9
:103780006E6F776E20706172616D657465723A203C
:103790000000000025733A257325730D0A00000010
:1037A0002DE9FC47074688469146384601F05FFE02
:1037B00030B100221146384601F09AFCBDE8FC8782
:1037C00014481549401A060900251EE0124800EB6E
:1037D0000514E0680079FF2806D110A208213846B8
:1037E000A36801F025FC0FE0E0680079E168497901
:1037F00009B112A100E013A1CDE9001014A2082123
:103800003846A36801F014FC6D1CB542DED300BF3E
:10381000D4E70000A8CE000088CE000025730D0A72
:10382000092D205374617475733A20646561637463
:103830006976617465640D0A0D0A0000656E616247
:103840006C65640064697361626C6564000000000B
:1038500025730D0A092D205374617475733A202560
:10386000730D0A092D2049443A2025640D0A0D0ADA
:103870000000000070B504460D461646204601F0D3
:10388000F6FD28B100221146204601F031FC70BD42
:1038900003A20221204601F0CBFB00BFF7E70000A6
:1038A0004E6F7420737570706F727465642E0D0A9C
:1038B0000000000070B504460D461646204601F093
:1038C000D6FD28B100221146204601F011FC70BD42
:1038D00003A20221204601F0ABFB00BFF7E7000086
:1038E0004E6F7420737570706F727465642E0D0A5C
:1038F000000000002DE9FE4F8246894616461D460F
:103900004FF0000BD9F80C0000790290002E5ED029
:10391000072243A12868FCF7DAFD002828D1012EF0
:1039200006D141A20221504601F082FBBDE8FE8F84
:10393000022E01D14FF0010B002409E0404A52F859
:1039400024100A226868FCF7C2FD00B902E0641C7A
:10395000052CF3D300BF052C06D13AA20221504614
:103960006B6801F065FBE1E7E7B24FF0020813E096
:1039700008223CA12868FCF7AAFD30B9012E00D12D
:10398000B34600274FF0010806E038A20221504656
:103990002B6801F04DFBC9E7BBF1000F18D00024E4
:1039A00011E03A462146029800F02EFB50B9002162
:1039B000204602F065FF034632A2022101905046E4
:1039C00001F036FB641C02F0F7FEA042E9D825E0C6
:1039D000444621E00020019055F8240001A900F0A0
:1039E0002BFB38B955F824302FA20221504601F0A4
:1039F0001FFB10E03A46DDE9011000F005FB50B96D
:103A00000021019802F03CFF03461EA20221009013
:103A1000504601F00DFB641CB442DBD300BF85E7C8
:103A2000656E61626C650000426164207061726164
:103A30006D6574657220636F756E742E0D0A0000DB
:103A4000C0010020556E6B6E6F776E2073657665D2
:103A500072697479206C6576656C3A2025730D0A5D
:103A60000000000064697361626C6500556E6B6EE6
:103A70006F776E206F7074696F6E3A2025730D0A30
:103A8000000000004C6576656C20756E617661699A
:103A90006C61626C6520666F72206D6F64756C6519
:103AA0003A2025730D0A0000556E6B6E6F776E20FD
:103AB0006D6F64756C653A25730D0A002DE9F04150
:103AC00005460C4616461F46204602F0E9FABDE8B8
:103AD000F08130B500BF0024CD686C7100BF30BDEF
:103AE00070B504460D46164633462A462046E16820
:103AF000FFF700FF70BD70B504460D46164633460D
:103B00002A462046E168FFF7D9FF70BD70B504462C
:103B10000D46164633462A462046E168FFF7D9FF90
:103B200070BD70B504460D46164633462A462046FB
:103B3000E16800F08BF870BD2DE9FF4100273048A7
:103B400000F024FC2E48001F00F020FC2D48806867
:103B500003902D480568039828402A490C3101EB51
:103B6000800800BF03A94046FFF73EFD30B103982F
:103B7000284024490C3101EB800800E000E0F1E727
:103B800000BF00240AE00398411C284003911D490E
:103B90000C3151F820004DF82400641C022CF2D3A3
:103BA000009800F0030001280DD0022814D1BDF8C0
:103BB00006700421009801EB9050401E039901EB20
:103BC000900003900EE0BDF806700098C0F38310DB
:103BD00003990844039005E00CA14FF4C270FEF76E
:103BE00093F800BF00BF0648001F00F0C8FB064660
:103BF00016B1044903988860384604B0BDE8F081E6
:103C00000C100020F40B0020BC0100202E2E5C2E96
:103C10002E5C2E2E5C6472765C636F6D706F6E65C9
:103C20006E74735C6C69627261726965735C6C6FEF
:103C3000675C7372635C6E72665F6C6F675F6672FF
:103C40006F6E74656E642E63000000002DE9FF5FE7
:103C500080460D4602F0B0FD814600BFE86840791D
:103C600020B923A20221404601F0E2F925A328A2AF
:103C70000821404601F0DCF92DA20821404601F060
:103C8000D7F9002430E0E86890F804A001231A4630
:103C90002146504602F09AFD834600230122214628
:103CA000504602F093FD0646032E01DA304600E04E
:103CB000032007460121204602F0E2FD0390B742AF
:103CC00001DA2BA200E029A22A4850F8270029494E
:103CD00051F82B10CDE90102009127A2082140469E
:103CE000039B01F0A5F9641C4C45CCD3BDE8FF9FB4
:103CF0004C6F6773206172652068616C7465642124
:103D00000D0A00006D6F64756C655F6E616D650016
:103D1000252D343073207C2063757272656E74209B
:103D20007C206275696C742D696E200D0A0000009C
:103D30002D2D2D2D2D2D2D2D2D2D2D2D2D2D2D2DB3
:103D40002D2D2D2D2D2D2D2D2D2D2D2D2D2D2D2DA3
:103D50002D2D2D2D2D2D2D2D2D2D2D2D2D2D2D2D93
:103D60002D2D2D2D2D2D2D2D2D2D0D0A000000007A
:103D70002A000000C0010020252D343073207C2053
:103D8000252D3773207C20257325730D0A00000034
:103D90008AB04FF48041002002F0B8FCFFF74CFAE3
:103DA0001822204904A8FCF74BFB00BF1E480090D6
:103DB0004FF4807001901D4802904FF48070039082
:103DC00007231B4A694604A8FDF710FE044600BFFE
:103DD00000BF254635B100BF16A291212846FCF749
:103DE0001BFA00BF00BF17A0FDF79EF9FEF7F6F81B
:103DF0001BA0FDF799F941F2883505B90EE000BF27
:103E00004FF47A7606B905E01C4F4FEA8618404613
:103E1000B84700BF681E051EF2D100BF01E0FEF7E3
:103E2000C5F8FCE7D8B40000B0060020B0070020B9
:103E3000719400002E2E5C2E2E5C2E2E5C6D61691E
:103E40006E2E630055534244206578616D706C6539
:103E500020737461727465642E200D0A00000000E6
:103E60006364632061636D206578616D706C6520AB
:103E7000737461727465642E200D0A00D1B4000061
:103E8000F0B50B30154D20F007010024144A0FE067
:103E900003688B420BD38B4205D95E1A43184768DF
:103EA000C3E9006700E04368136002C004E0021D3C
:103EB00010680028ECD12046002802D1286808B1FB
:103EC0000020F0BD064A07481060074A121A22F087
:103ED0000702C0E9002401202860D7E7680200201B
:103EE0006402002034130020303300202DE9FF4FFE
:103EF00087B0054693461E461DB935A1B620FDF78D
:103F000003FF2F462C46F8883D4679794843001F29
:103F100006900698864203D32DA1C420FDF7F4FE37
:103F2000B7F80680301DB0FBF8F00590301DB0FBEF
:103F3000F8F108FB11000490DBF8000081190698E5
:103F4000814202D90698801B01E0DBF8000081461F
:103F5000CBF8009003E024680598401E0590059872
:103F60000028F8D103900498A8EB000ACA4501D9AB
:103F7000484600E05046824623E0039908980844EA
:103F80000290201D049908440190149828B15246CB
:103F9000DDE90110FCF754FA04E05246DDE90101C5
:103FA000FCF74EFA002004902468A9EB0A09039854
:103FB00050440390C84501D9484600E04046824637
:103FC00000BFB9F1000FD8D10BB0BDE8F08F0000F1
:103FD0002E2E5C2E2E5C2E2E5C6472765C636F6DD2
:103FE000706F6E656E74735C6C6962726172696524
:103FF000735C6D656D6F626A5C6E72665F6D656D38
:104000006F626A2E630000002DE9F04105460E46FE
:10401000144600231A463146284602F0D7FB0746CD
:10402000BC4202DD0020BDE8F08122463146284630
:1040300002F0FCFB0120F6E72DE9F04105460E46B3
:1040400002F0BAFB074600240DE00021204602F0F2
:1040500017FC8046202229464046FCF738FA08B96A
:10406000346002E0641CBC42EFD300BFBC4202D00B
:104070000120BDE8F0810020FBE7000070B5034699
:104080000C469CB102F098FB054600220AE0084865
:1040900000EB820108881E68B04202D11A6000203D
:1040A00070BD521CAA42F2D30520F9E70020F7E7C1
:1040B0008802002070B505460C460020E060606074
:1040C0000348A0600121284602F0DAFB206070BDA1
:1040D00034BA000070B50546AE68A86800F1140453
:1040E0002868FEF703F9A071F07FA179084461798F
:1040F00090FBF1F201FB1200401C2070F07FA179CF
:104100000844617990FBF1F0401CA070B07FA17968
:104110000844617990FBF1F0401CE070B07FA17918
:104120000844617990FBF1F201FB1200401C6070C1
:10413000204670BD0D4802684FF08050D0F8341111
:10414000082A11D131B1012906D0022906D003294C
:1041500008D105E0012070470020FCE70020FAE7C5
:104160000020F8E70020F6E70020F4E73001001017
:104170000D4802684FF08050D0F83411082A11D150
:1041800031B1012906D0022906D0032908D105E062
:10419000012070470020FCE70020FAE70020F8E744
:1041A0000020F6E70020F4E7300100100D48026817
:1041B0004FF08050D0F83411082A11D131B10129C3
:1041C00006D0022906D0032908D105E00120704756
:1041D0000020FCE70020FAE70020F8E70020F6E7DF
:1041E0000020F4E7300100100D4802684FF08050C5
:1041F000D0F83411082A11D131B1012906D0022991
:1042000006D0032908D105E0012070470120FCE712
:104210000120FAE70120F8E70120F6E70020F4E7A3
:10422000300100100D4802684FF08050D0F8341172
:10423000082A11D131B1012906D0022906D003295B
:1042400008D105E0012070470120FCE70120FAE7D2
:104250000120F8E70120F6E70020F4E73001001024
:104260000D4802684FF08050D0F83411082A11D15F
:1042700031B1012906D0022906D0032908D105E071
:10428000012070470120FCE70120FAE70120F8E750
:104290000120F6E70020F4E7300100100D48026825
:1042A0004FF08050D0F83411082A11D131B10129D2
:1042B00006D0022906D0032908D105E00120704765
:1042C0000020FCE70020FAE70020F8E70020F6E7EE
:1042D0000020F4E73001001010B5044609B90E20A3
:1042E00010BD92FBF3F003FB102008B10920F7E7A3
:1042F000216000206060A060A281E38100BFEFE741
:1043000070B504460D4629462046FCF71FF818B143
:104310002A882168881870BD0020FCE770B5054622
:104320000C4620886188884204D12846FCF750F862
:10433000012070BD0020FCE770B504460D462946FB
:104340002046FCF728F818B16A882168881870BDE3
:104350000020FCE770B505460C462088618888423D
:1043600004D12846FCF70EF8012070BD0020FCE7C0
:1043700010B504460021204600F021F810BD10B50C
:1043800004460021204600F025F810BD10B5044673
:104390000121204600F03FF810BD10B50446012170
:1043A000204600F022F810BDF8B504460D466A46D6
:1043B00029462046FBF78BFF06460098F8BDF8B566
:1043C00004460D466A4629462046FBF766FF064628
:1043D0000098F8BDF8B504460D466A4629462046C1
:1043E000FBF75BFF06463046F8BDF8B504460D46C0
:1043F0006A4629462046FBF743FF06463046F8BD8D
:10440000F8B504460D466A4629462046FBF72CFFC0
:1044100006463046F8BDF8B504460D466A462946BC
:104420002046FBF72DFF06460098F8BDF8B5044678
:104430000D466A4629462046FBF756FF0646009879
:10444000F8BD000070B5044624B914A14FF4927071
:10445000FDF75AFC00250020FDF76CFB2068006882
:104460006168884215D920680068401E2268106083
:104470000178204600F098F80546207A21680978EE
:10448000401AC6B220680079B04201DA206806718D
:1044900000BF0020FDF77AFB284670BD2E2E5C2E53
:1044A0002E5C2E2E5C6472765C636F6D706F6E6531
:1044B0006E74735C6C69627261726965735C62616F
:1044C0006C6C6F635C6E72665F62616C6C6F632EA6
:1044D0006300000070B504460D461CB905A1F52027
:1044E000FDF712FCE068281A218BB0FBF1F0C0B296
:1044F00070BD00002E2E5C2E2E5C2E2E5C6472761B
:104500005C636F6D706F6E656E74735C6C69627204
:1045100061726965735C62616C6C6F635C6E72661C
:104520005F62616C6C6F632E6300000070B50446BF
:104530000D4624B90EA140F24710FDF7E5FB25B961
:104540000BA14FF4A470FDF7DFFB2E460020FDF712
:10455000F1FA31462046FFF7BDFF21680A68511C79
:104560002368196010700020FDF710FB70BD00007B
:104570002E2E5C2E2E5C2E2E5C6472765C636F6D2C
:10458000706F6E656E74735C6C696272617269657E
:10459000735C62616C6C6F635C6E72665F62616CAF
:1045A0006C6F632E6300000070B504460D461CB9A5
:1045B00004A1E820FDF7A8FB218BE06805FB0100C2
:1045C00070BD00002E2E5C2E2E5C2E2E5C6472764A
:1045D0005C636F6D706F6E656E74735C6C69627234
:1045E00061726965735C62616C6C6F635C6E72664C
:1045F0005F62616C6C6F632E6300000070B50446EF
:1046000000BF0CB90E2070BD00BF206818B91BA1F7
:10461000FF20FDF779FB606820B918A14FF4807086
:10462000FDF772FBA06820B914A140F20110FDF75C
:104630006BFBE06820B911A14FF48170FDF764FBBA
:10464000208B20B90DA140F20310FDF75DFB207A0D
:104650002179401AC5B2D4E90010086005E020684D
:104660000168481C226810600D70281EA5F1010128
:10467000CDB2F4D12168087100BFC4E72E2E5C2EA4
:104680002E5C2E2E5C6472765C636F6D706F6E654F
:104690006E74735C6C69627261726965735C62618D
:1046A0006C6C6F635C6E72665F62616C6C6F632EC4
:1046B000630000002DE9F74F8CB0824600BFDAF8A6
:1046C0000800D0F84801C0F3400038B1002211467C
:1046D000504600F00DFD0FB0BDE8F08F0D98012899
:1046E00005D92EA20221504600F0A2FCF3E7304883
:1046F0003049401A1C21B0FBF1F00B90002547E037
:10470000C5EBC5002B4901EB8004B4F818B0208B31
:10471000A0EB0B000A90D4E90110461AA146B9F1AA
:10472000000F04D124A140F24510FDF7EDFAD9F8AD
:1047300000000779A146B9F1000F04D11EA140F293
:104740005510FDF7E1FA99F80800D9F8001009783A
:10475000401A00F0FF086069099064207843B0FBBC
:10476000F6F9642018FB00F0B0FBF6F0CDE904691F
:104770000146CDE9067608900A98CDE900B0CDE96A
:1047800002181B4A08215046099B00F051FC6D1C81
:104790000B988542B4D300BF9DE7000042616420BE
:1047A000617267756D656E7420636F756E7400005D
:1047B00070CF000038CF00002E2E5C2E2E5C2E2EE7
:1047C0005C6472765C636F6D706F6E656E74735C43
:1047D0006C69627261726965735C62616C6C6F6353
:1047E0005C6E72665F62616C6C6F632E68000000C5
:1047F00044C1000030B502460B46D40802F007025F
:10480000012090401D5D284030BD00002DE9F0479B
:1048100081460D4614461E4654F8048C4046FDF76A
:104820007FFA07462FB123462A4639464846B04705
:1048300005E0434603A20221484600F0F9FBBDE82B
:10484000F0870000496E76616C6964206261636B79
:10485000656E643A2025730D0A0000002DE9F041D1
:1048600004460D4616461F46204600F0F9FD38B1B5
:104870003A463146204600F03BFC0120BDE8F0817D
:1048800045B1A06804A202214368204600F0D0FB95
:104890000120F3E70020F1E725733A2077726F6E6D
:1048A0006720706172616D6574657220636F756EEB
:1048B000740A000070B504460D46164624B921A1BD
:1048C00040F65F50FDF720FAA06818B1606808B1A3
:1048D000206820B91BA14FF45660FDF715FA022D90
:1048E00009D1204600F0BCFD28B100221146204627
:1048F00000F0FEFB70BD24B912A140F66850FDF730
:1049000003FA206920B90FA140F66850FDF7FCF9C1
:10491000184A19A1206901F01BF824B909A140F631
:104920006950FDF7F1F9206920B906A140F66950F8
:10493000FDF7EAF9114A10A1206901F009F800BF5A
:10494000D8E700002E2E5C2E2E5C2E2E5C64727634
:104950005C636F6D706F6E656E74735C6C696272B0
:1049600061726965735C636C695C6E72665F636CCF
:10497000692E630043B800002573000047B80000AB
:1049800070B504460D46164624B912A140F66E5085
:10499000FDF7BAF9A06818B1606808B1206820B9BD
:1049A0000CA140F66F50FDF7AFF9012D05D0022D97
:1049B00009D1204600F054FD28B1002211462046BE
:1049C00000F096FB70BD0FA20221204600F030FBE4
:1049D00000BFF7E72E2E5C2E2E5C2E2E5C647276C6
:1049E0005C636F6D706F6E656E74735C6C69627220
:1049F00061726965735C636C695C6E72665F636C3F
:104A0000692E6300506C656173652073706563691E
:104A10006679206120737562636F6D6D616E642EBF
:104A20000A0000007CB506460C461546012C05D14F
:104A300000221146304600F05BFB7CBD022C0AD1FF
:104A40000BA16868CDE900100FA2022130462B6847
:104A500000F0EEFAF1E7022C01D9012000E000207D
:104A6000014600231A463046FFF7F8FE00BFE4E790
:104A700020756E6B6E6F776E20706172616D6574FC
:104A800065723A200000000025733A257325730AE9
:104A90000000000070B504460D461646012D01D0F9
:104AA000012000E00020014600231A462046FFF7BF
:104AB000D5FE00B170BD0020A168C1F83801E168E1
:104AC0004968086802F05CF900BFF3E72DE9FE438E
:104AD00005460F469146012F01D0012000E000203D
:104AE000014600231A462846FFF7B8FE08B1BDE884
:104AF000FE83E86840680468204602F01BF9C6B2ED
:104B0000642016FB00F0A168B0FBF1F000F0FF0894
:104B1000A068CDE900860290A86804A20021D0F820
:104B20003831284600F084FA00BFE0E74C6F737418
:104B3000206C6F67733A2025750A4D6178206C6F81
:104B400067207175657565207574696C697A617423
:104B5000696F6E3A2025752525205B25752F2575F3
:104B60005D0A00007CB504460D46164624B918A11E
:104B700040F68F50FDF7C8F8A06818B1606808B11A
:104B8000206820B912A14FF45960FDF7BDF8012D3E
:104B900005D100221146204600F0AAFA7CBD022D64
:104BA00001D0012000E00020014600231A462046E3
:104BB000FFF754FE00B1F1E711A17068CDE90010D4
:104BC00015A202212046336800F032FA00BFE5E763
:104BD0002E2E5C2E2E5C2E2E5C6472765C636F6DC6
:104BE000706F6E656E74735C6C6962726172696518
:104BF000735C636C695C6E72665F636C692E6300E4
:104C000020756E6B6E6F776E20706172616D65746A
:104C100065723A200000000025733A257325730A57
:104C20000000000070B504460D461646012D01D067
:104C3000012000E00020014600231A462046FFF72D
:104C40000DFE00B170BDA068D0F8480120F004004E
:104C5000A168C1F8480100BFF4E770B504460D46ED
:104C60001646012D01D0012000E00020014600235E
:104C70001A462046FFF7F2FD00B170BDA068D0F8DB
:104C8000480120F00400001DA168C1F8480100BFE0
:104C9000F3E700002DE9FC4106460C461546022CC0
:104CA00001D9012000E00020014600231A463046C9
:104CB000FFF7D4FD08B1BDE8FC81022C0AD10DA19B
:104CC0006868CDE9001011A2022130462B6800F07F
:104CD000AFF9F0E73046FDF7F1F908B10EA000E0BA
:104CE0000EA007463B460EA20021304600F0A0F978
:104CF00000BFE0E720756E6B6E6F776E207061729B
:104D0000616D657465723A200000000025733A25D4
:104D10007325730A000000006F6E00006F66660066
:104D20004563686F207374617475733A2025730A44
:104D30000000000070B504460D461646012D01D056
:104D4000012000E00020014600231A462046FFF71C
:104D500085FD00B170BD00BFA068D0F8480120F00B
:104D60000800A168C1F8480100BF00BFF2E770B5B4
:104D700004460D461646012D01D0012000E000201A
:104D8000014600231A462046FFF768FD00B170BDBA
:104D900000BFA068D0F8480120F008000830A168E2
:104DA000C1F8480100BF00BFF1E700002DE9FF4155
:104DB00004460F46904624B924A140F6C750FCF79C
:104DC000A3FFA06818B1606808B1206820B91FA1CE
:104DD00040F6C850FCF798FF012F01D0012000E0F9
:104DE0000020014600231A462046FFF737FD08B190
:104DF000BDE8FF810025A068D0F840611EE00EB13B
:104E0000082D00D31BE00023092201A9304601F040
:104E10003FFE9DF80C00421CA06800F1A001092390
:104E2000304601F035FE029EA068A0302B466D1C76
:104E300012A200210090204600F0FAF8DFE700BF40
:104E40000020A16881F8A00000BFD1E72E2E5C2EC3
:104E50002E5C2E2E5C6472765C636F6D706F6E6577
:104E60006E74735C6C69627261726965735C636CA9
:104E7000695C6E72665F636C692E63005B253364E8
:104E80005D2025730A0000007CB504460D461646D9
:104E900024B91FA140F62860FCF736FFA06818B1BE
:104EA000606808B1206820B919A140F62960FCF7B4
:104EB0002BFF012D13D1A06800F11802511C2046D0
:104EC00004F042F950B15021A06841761821A06841
:104ED00001761BA20421204600F0AAF87CBD022D19
:104EE00001D9012000E00020014600231A46204697
:104EF000FFF7B4FC00B1F1E720A17068CDE9001024
:104F000024A202212046336800F092F800BFE5E7B2
:104F10002E2E5C2E2E5C2E2E5C6472765C636F6D82
:104F2000706F6E656E74735C6C69627261726965D4
:104F3000735C636C695C6E72665F636C692E6300A0
:104F40004E6F20726573706F6E73652066726F6D41
:104F500020746865207465726D696E616C2C2061C7
:104F60007373756D656420383078323420736372E2
:104F700065656E2073697A650A00000020756E6BA6
:104F80006E6F776E20706172616D657465723A2024
:104F90000000000025733A257325730A0000000005
:104FA00070B504460D461646012D01D0012000E0E3
:104FB0000020014600231A462046FFF74FFC00B1AF
:104FC00070BD24B90CA140F62160FCF79DFE20695C
:104FD00020B909A140F62160FCF796FE124A13A100
:104FE000206900F0B5FC5021A06841761821A06826
:104FF000017600BFE4E700002E2E5C2E2E5C2E2EE4
:105000005C6472765C636F6D706F6E656E74735CFA
:105010006C69627261726965735C636C695C6E7203
:10502000665F636C692E63004CB800002573000056
:105030000FB47CB504460D46089820B920A140F66F
:105040006130FCF761FE24B91DA140F66230FCF727
:105050005BFEA06818B1606808B1206820B918A18B
:1050600040F66330FCF750FE0020019009A8019043
:10507000A068D0F84801C0F38000B8B1A068C07E35
:10508000A84213D06846A168B1F81B10018000BF88
:105090002946204606F0AEF901AA2069089900F0D9
:1050A000C3FC6946204606F0D1F904E001AA206954
:1050B000089900F0B9FC002001907CBC5DF814FB5D
:1050C0002E2E5C2E2E5C2E2E5C6472765C636F6DD1
:1050D000706F6E656E74735C6C6962726172696523
:1050E000735C636C695C6E72665F636C692E6300EF
:1050F0002DE9F04F89B006460C46914626B9B6A177
:1051000040F6E230FCF700FEB06818B1706808B1F4
:10511000306820B9B0A140F6E330FCF7F5FD4FF060
:105120000008B948FDF7E2F80546B848FDF7DEF893
:10513000281A87B2B6480090B068B6A20821436822
:105140003046FFF775FFB1684868FDF7CFF80546B0
:10515000AF48FDF7CBF828441FFA80F8B068002369
:10516000424681683046FDF74DFFACA20021304633
:10517000FFF75EFFB9F1000F26D02CB3002521E028
:1051800005EB450104EB81014868FDF7AFF8834664
:1051900005EB450154F82100FDF7A8F85844B84242
:1051A0000FD905EB450104EB81014868FDF79EF836
:1051B000834605EB450154F82100FDF797F8584464
:1051C00087B26D1C4D45DBD39048FDF78FF8801CEE
:1051D000384487B28C483B4693A208210090304661
:1051E000FFF726FFF81C1FFA80F80023424690A123
:1051F0003046FDF707FF002C7ED0002585E005EB4B
:10520000450004EB80004068F0B305EB450054F81E
:105210002000C8B305EB450054F820007B49CDE9D8
:10522000001005EB450004EB800086A208214368CE
:105230003046FFF7FDFEB81C1FFA80F805EB45016C
:1052400004EB81014868FDF751F8834605EB450101
:1052500054F82100FDF74AF883440BF1020B6B4828
:10526000FDF744F85844A8EB0000C0B20146029094
:105270003046FDF76DFB3A213046FCF7F3FF08F1AD
:1052800001001FFA80F829E0FFE705EB450004EB79
:105290008000406878B105EB450004EB8000406871
:1052A0003B4661A2082100903046FFF7C1FEF81C82
:1052B0001FFA80F812E005EB450054F8200068B1B1
:1052C00005EB450054F820003B4657A2082100900A
:1052D0003046FFF7ADFEF81C1FFA80F805EB4500DD
:1052E00004EB8000806860B105EB450004EB8000B2
:1052F00000234246816800E00AE03046FDF782FE66
:1053000002E03046FDF762FA6D1C4D45FFF477AFC1
:10531000B068C06810B909B0BDE8F08FB068C06867
:1053200004900020039080460027824617E005A8DD
:1053300052460AF1010A03AB012100900498FDF7DF
:1053400095F9039800B90BE003990868FCF7CEFFC4
:10535000B84204D903990868FCF7C8FF87B2E6E7AA
:1053600000BFBAF1010F00D1D5E739A200213046C4
:10537000FFF75EFE4FF0000A2AE005A852460AF148
:10538000010A03AB012100900498FDF76FF903981F
:1053900000B91EE0B81C1FFA80F803980068434665
:1053A00021A2082100903046FFF742FE08F10300D9
:1053B0001FFA80F80398406838B1039800234246EA
:1053C00041683046FDF71EFE02E03046FDF7FEF96B
:1053D000D3E700BF00BF9EE72E2E5C2E2E5C2E2E44
:1053E0005C6472765C636F6D706F6E656E74735C17
:1053F0006C69627261726965735C636C695C6E7220
:10540000665F636C692E630034B8000031B8000039
:105410003FB8000025732573000000004F707469C9
:105420006F6E733A0A0000002020252D2A733A007F
:1054300053686F7720636F6D6D616E642068656C73
:10544000702E0000202025732573257300000000B6
:10545000537562636F6D6D616E64733A0A0000008C
:1054600001468868D0F84801C0F340007047014603
:105470008868D0F84801C0F34000704770B5044612
:105480000D4616460023324629462046FDF758F8B9
:1054900070BD01464FF08040405808B10120704770
:1054A0000020FCE708B500224FF080410A5009585F
:1054B000009100BF08BD000001490860704700006E
:1054C00008030040014908607047000004030040E1
:1054D000012291070A50704710B50B48007820B997
:1054E0000AA14FF4B170FCF70FFC00BF0120154971
:1054F000096801F0011140F48032914201D101218B
:1055000000E00021084610BDF40800202E2E5C2E7D
:105510002E5C2E2E5C6472765C696E7465677261B7
:1055200074696F6E5C6E7266785C6C6567616379D6
:105530005C6E72665F6472765F636C6F636B2E6322
:10554000000000000C04004010B504461C48007820
:1055500020B91CA140F23310FCF7D6FB1848407864
:1055600078B114B10020616888470020FCF7E2FAA6
:1055700013484068401C124948600020FCF706FBB5
:1055800015E00020FCF7D6FA24B121460C4808307B
:10559000FEF77CF80A48406808B9FDF737FE08486E
:1055A0004068401C064948600020FCF7EFFA0448B8
:1055B000406820B903A140F24F10FCF7A5FB10BDD5
:1055C000F40800202E2E5C2E2E5C2E2E5C6472764B
:1055D0005C696E746567726174696F6E5C6E726629
:1055E000785C6C65676163795C6E72665F64727625
:1055F0005F636C6F636B2E630000000010B50024C6
:105600000D48007808B185240EE000200A49886022
:1056100048600861C860094802F0B8F9044602F021
:1056200053F901200449087002F044F910B1012037
:1056300001498870204610BDF4080020452600006E
:1056400010B50848007820B907A140F22510FCF7F2
:105650005BFB00BF00BF12480068C0F3004000BF02
:1056600010BD0000F40800202E2E5C2E2E5C2E2E85
:105670005C6472765C696E746567726174696F6E82
:105680005C6E7266785C6C65676163795C6E72668D
:105690005F6472765F636C6F636B2E630000000063
:1056A0001804004010B504461C48007818B91CA125
:1056B000F620FCF729FB1948807878B114B1012055
:1056C000616888470020FCF735FA1448C068401C20
:1056D0001249C8600020FCF759FA15E00020FCF7D9
:1056E00029FA24B121460D481030FDF7CFFF0B48B1
:1056F000C06808B902F0A6F90848C068401C07490C
:10570000C8600020FCF742FA0448C06820B904A130
:105710004FF48970FCF7F8FA10BD0000F40800207F
:105720002E2E5C2E2E5C2E2E5C6472765C696E745E
:105730006567726174696F6E5C6E7266785C6C65C9
:10574000676163795C6E72665F6472765F636C6FCB
:10575000636B2E630000000070B5054608480078B2
:1057600008B1852070BD05B9064D284602F0ACFA97
:10577000044614B90120024908702046F2E70000EF
:105780007D000020A2B500002DE9F04188B004465C
:105790000E46174625781E4840F825701D49306989
:1057A00041F82500012D05D1707F18B91AA1762086
:1057B000FCF7AAFA707F25494855202231466846F1
:1057C000FAF73EFE04954FF0000820781F49085C68
:1057D00050B10FB11E4800E0002002466946201D6E
:1057E00002F0BEFD80460EE020781849085C50B9F2
:1057F0000FB1184800E000200246694604F10C0091
:1058000002F0BCFB8046404608B0BDE8F0810000D5
:1058100080000020880000202E2E5C2E2E5C2E2E74
:105820005C6472765C696E746567726174696F6ED0
:105830005C6E7266785C6C65676163795C6E7266DB
:105840005F6472765F756172742E63009000002051
:10585000B9980000BD9600002DE9F04104460D46C0
:105860001646002720780C49085C30B1324629469C
:10587000201D02F0D5FD07460AE020780649085CA5
:1058800030B93246294604F10C0002F0DBFB074632
:105890003846BDE8F0810000900000202DE9F0417D
:1058A00004460D461646002720780C49085C30B1A6
:1058B00032462946201D02F0A7FE07460AE020785E
:1058C0000649085C30B93246294604F10C0002F062
:1058D00093FC07463846BDE8F081000090000020A8
:1058E0002DE9F04104460D461646002720780C4964
:1058F000085C30B132462946201D02F085FE07467D
:105900000AE020780649085C30B93246294604F19D
:105910000C0002F071FC07463846BDE8F08100003B
:105920009000002010B5044620780849085C18B1A2
:10593000201D02F01BFF07E020780449085C18B91D
:1059400004F10C0002F0E0FC10BD0000900000200B
:105950000FB438B504461CB913A14220FCF7D4F9A2
:10596000606918B910A14320FCF7CEF9206818B976
:105970000DA14420FCF7C8F9606818B90AA14520B8
:10598000FCF7C2F9059810B938BC5DF814FB00208B
:10599000009006A800906A462046059900F044F859
:1059A0000020009000BFEFE72E2E5C2E2E5C2E2EE6
:1059B0005C6472765C65787465726E616C5C66704E
:1059C00072696E74665C6E72665F667072696E7420
:1059D000662E630070B504461CB908A13120FCF79F
:1059E00093F9A06800B970BDD4E90403A2682168E6
:1059F00098470020A06000BFF5E700002E2E5C2E27
:105A00002E5C2E2E5C6472765C65787465726E61B5
:105A10006C5C667072696E74665C6E72665F6670EE
:105A200072696E74662E63002DE9FC5F80460D4638
:105A30001446B8F1000F04D187A140F25220FCF7C0
:105A400063F9D8F8140020B983A14FF41570FCF75E
:105A50005BF9D8F8000020B97FA140F25520FCF78F
:105A600053F9D8F8040020B97BA140F25620FCF786
:105A70004BF90DB9BDE8FC9F00BF2E786D1C06B92F
:105A8000E1E0252E70D100274FF0010A00BF2E78EB
:105A90002B2E0CD02D2E02D0302E0CD103E047F04F
:105AA00001076D1C0AE047F002076D1C06E047F095
:105AB00004076D1C02E04FF0000A00BF00BFBAF1FE
:105AC000000FE4D14FF0000900BF2A2E06D1216853
:105AD000081D2060086881446D1C0DE02E78302E72
