:020000040000FA
:1000000050670020150400001D04000035020000A8
:10001000210400002304000025040000000000006B
:1000200000000000000000000000000027040000A5
:1000300029040000000000002B0400002D04000033
:10004000250900002F040000890B00002F04000088
:100050002F0400002F040000950500002F0400006D
:100060002F0400002F0400002F0400002F040000C4
:100070002F0400002F0400002F0400002F040000B4
:100080002F040000310900002F0400002F0400009D
:100090002F0400002F0400002F0400002F04000094
:1000A0002F0400002F0400002F0400002F04000084
:1000B0002F0400002F0400000000000000000000DA
:1000C0002F0400002F0400002F0400002F04000064
:1000D0002F0400002F0400002F040000DD0B00009F
:1000E0002F0400002F0400002F0400000000000077
:1000F000000000002F040000000000002F0400009A
:1001000000000000000000000000000000000000EF
:1001100000000000000000000000000000000000DF
:1001200000000000000000000000000000000000CF
:1001300000000000000000000000000000000000BF
:1001400000000000000000000000000000000000AF
:10015000000000000000000000000000000000009F
:10016000000000000000000000000000000000008F
:10017000000000000000000000000000000000007F
:10018000000000000000000000000000000000006F
:10019000000000000000000000000000000000005F
:1001A000000000000000000000000000000000004F
:1001B000000000000000000000000000000000003F
:1001C000000000000000000000000000000000002F
:1001D000000000000000000000000000000000001F
:1001E000000000000000000000000000000000000F
:1001F00000000000000000000000000000000000FF
:10020000DFF810D000F088F900480047F13D000009
:10021000AFF300805067002000B583B002900091DA
:10022000019244F2010071466A4601F01BF903B0E5
:1002300000BD0000094B1EF0040F1CBFEFF3098046
:100240001847EFF308800649064A884201D89042D1
:1002500002D88D464FF000001847000055060000F8
:10026000506700205047002030B4044654E8000F87
:100270000D4644E80053002BF8D1156030BC7047A0
:1002800030B4044654E8000F40EA010544E8005346
:10029000002BF7D1156030BC704730B4044654E8E9
:1002A000000F00EA010544E80053002BF7D1156068
:1002B00030BC704730B4044654E8000F80EA0105B2
:1002C00044E80053002BF7D1156030BC704730B4C0
:1002D000044654E8000F00EB010544E80053002BEE
:1002E000F7D1156030BC704730B4044654E8000FB5
:1002F000A0EB010544E80053002BF7D1156030BC9A
:10030000704770B404464FF0000054E8006F0D6869
:10031000AE4207BF44E80023012044E800630E60BA
:10032000002B1CBF0020F0E770BC704730B40446BF
:1003300054E8000F88422CBF451A054644E8005394
:10034000002BF5D1156030BC7047000030B450E888
:10035000012F93B2C48923448489A34228BF1B1B65
:100360000489A34202BFBFF32F8F002007E0C3EA36
:10037000020340E80134002CE9D14FF001000A608B
:1003800030BC704750E8012FC2EA024240E8012128
:100390000029F7D1704730B450E8022F1FFAA2F3BA
:1003A000C488A34202BFBFF32F8F00200DE0C48991
:1003B00023448489A34228BF1B1BC2EA034340E8AD
:1003C0000234002CE8D14FF001000A6030BC7047C5
:1003D00050E8022FC2EA224240E802210029F7D168
:1003E0007047034653E8022FD988B2EB324F4FF0E3
:1003F000000017BF92B241EA014142EA014104E024
:100400005A68B2EB324F08BF012043E80212002ABB
:10041000E8D170470648804706480047FEE7FEE7F8
:10042000FEE7FEE7FEE7FEE7FEE7FEE7FEE7FEE7A4
:1004300059090000010200000048704788B100001F
:1004400010B5431A934209D28318881803E010F8B4
:10045000011D03F8011D521EF9D210BD40EA01032F
:100460009B0703D009E008C9121F08C0042AFAD26A
:1004700003E011F8013B00F8013B521EF9D210BD18
:10048000D2B201E000F8012B491EFBD270470022D6
:10049000F6E710B513460A4604461946FFF7F0FF83
:1004A000204610BD421C10F8011B0029FBD1801A08
:1004B000704710B5002200E0521C835C8C5CA342A4
:1004C00001D1002BF8D1D8B2E1B2401A10BD30B53D
:1004D00005460020034600E05B1C934205D2EC5C1D
:1004E000C85C201A01D1002CF6D130BD30B50B46C6
:1004F000014600202022012409E021FA02F59D4254
:1005000005D303FA02F5491B04FA02F52844151E27
:10051000A2F10102F1DC30BD064C074D06E0E068B7
:1005200040F0010394E8070098471034AC42F6D33A
:10053000FFF76AFE28C3000048C3000070B58C189E
:1005400010F8015B15F0070301D110F8013B2A11E7
:1005500006D110F8012B03E010F8016B01F8016BD4
:100560005B1EF9D12B0705D40023521E0DD401F8D0
:10057000013BFAE710F8013BCB1A921C03E013F899
:10058000015B01F8015B521EF9D5A142D8D30020CE
:1005900070BD00002DE9FC4700260020009001906E
:1005A0004FF480770125002410E0384605F030FC38
:1005B00040B100BF25480068284018B1384605F012
:1005C00019FC2E436D00381D87B2641C082CECD337
:1005D0004FF4BE7005F01CFC50B14FF4BE7005F036
:1005E00009FC46F000466A460221002005F0F8FAB0
:1005F000F0B210B3012500241DE005EA0600C0B1E9
:1006000000BF134850F82400C0F30520814600BF06
:100610000F4850F82400C0F301408246204601F004
:100620002FFC8046B8F1000F02D051464846C04723
:1006300000BF6D00641C082CDFD306F0004010B131
:10064000684608F05DF8BDE8FC87000004630040E0
:10065000106500402DE9FC41074600BF06F030F868
:1006600000BF00BF05F0F0FC0028FBD100BF00BFB9
:100670003C4658480668002C35D057484088012829
:100680000ADB5649564BC91AC908012343EA0140FF
:1006900054A1A26905F088FE4F48408801280FDB6D
:1006A000D4E90201CDE900014C494D4D491BC9086F
:1006B000012545EA014051A1D4E9002305F0A4FE3B
:1006C0004548408801281CDBE06900904349444DBF
:1006D000491BC908012545EA014056A1D4E9042374
:1006E00005F07EFE0DE03C484088012809DB3B49CF
:1006F0003B4A891AC908012242EA014057A105F084
:1007000049FE3448001D006800F0020068B132481C
:100710004088012809DB3149314A891AC908012278
:1007200042EA01405A4905F035FE002519E0012052
:10073000A8403040A0B1574850F8250080B1264865
:10074000408801280CDB534951F825202349244BCC
:10075000C91AC908012343EA01404FA105F024FE4C
:100760006D1C1A2DE3D306F0800080B11A48408832
:1007700001280CDB17490C310A681849184BC91AB3
:10078000C908012343EA014046A105F00DFE06F425
:10079000004080B11048408801280CDB0D49103121
:1007A0000A680E490E4BC91AC908012343EA0140E1
:1007B00044A105F0F9FD00BF0648C830006800F00C
:1007C000010000B100BE00BF384600F089F8BDE866
:1007D000FC81000028ED00E0940A002000C4000025
:1007E000A0C3000048415244204641554C5420616A
:1007F0007420307825303858000000002020523016
:100800003A2020307825303858202052313A2020A4
:10081000307825303858202052323A202030782540
:10082000303858202052333A20203078253038583C
:100830000000000020205231323A20307825303834
:100840005820204C523A202030782530385820202B
:100850005053523A20307825303858005374616331
:100860006B2076696F6C6174696F6E3A2073746186
:10087000636B20706F696E746572206F7574736935
:10088000646520737461636B20617265612E000082
:1008900074B200000009002043617573653A202599
:1008A000732E00004D656D4D616E61676520466178
:1008B000756C7420416464726573733A20307825D6
:1008C00030385800427573204661756C742041645D
:1008D00064726573733A2030782530385800000010
:1008E00000BF00BF00BF00BF00BFBFF34F8F00BFFE
:1008F00000BF00BF0948006800F4E06008490843F1
:10090000001D0649086000BF00BF00BFBFF34F8F46
:1009100000BF00BF00BF00BF00BFFDE70CED00E05F
:100920000000FA0510B507F07FF806F003FF10BDD0
:1009300010B5034A1068034A1168884710BD0000CB
:10094000F8080020F40800200148024908607047B8
:100950000090D0033C0A002010B503F099FC40B190
:100960000020794908604FF08041C1F810017749B3
:10097000086003F0ABFC002855D075480068754945
:1009800008607348001D0068091D08607048083041
:100990000068091D08606E480C300068091D086079
:1009A0006B4810300068091D086069481430006801
:1009B000091D0860664818300068664920310860E3
:1009C00063481C300068091D0860614820300068D9
:1009D000091D08605E4824300068091D08605C48F5
:1009E00028300068091D086059482C300068091D2E
:1009F0000860574830300068564940310860544814
:100A000034300068091D0860514838300068091DFD
:100A100008604F483C300068091D08604C48403071
:100A20000068091D086003F06FFC10B14A484B498B
:100A3000086003F0B5FB10B1FB204949086003F0E2
:100A4000CDFB38B1474801784748006861F303009F
:100A50004549086003F0E0FB18B14FF400704349CA
:100A6000086003F0F7FB40B14148006800F0010066
:100A700018B16FF001003E4908603E48006840F43C
:100A800070003C49086000BF00BF00BFBFF34F8F3C
:100A900000BF00BF00BF00BF00BF00BFBFF36F8F2C
:100AA00000BF00BF00BF3448006800F0004030B90C
:100AB0003148001D006800F00040002840D00120AF
:100AC0002E49086000BF2E4800680028FBD0122085
:100AD0002949086000BF2A4800680028FBD012217D
:100AE0002548001D016000BF254800680028FBD094
:100AF00000202249086000BF214800680028FBD080
:100B000000BF00BF00BF00BF00BFBFF34F8F00BFDB
:100B100000BF00BF17487C38006800F4E060194946
:100B20000843001D13497C39086000BF00BF00BFA7
:100B3000BFF34F8F00BF00BF00BF00BF00BFFDE786
:100B4000FFF702FF10BD00000C0100403805004017
:100B50000404001020C50040488103008C5600406A
:100B600018F5004058020010E40E00404096024084
:100B70000004004088ED00E00012001004E5014090
:100B800000E401400000FA0510B50548006818B9F6
:100B900004A1512001F00AF801490868804710BDFE
:100BA000AC0800202E2E5C2E2E5C2E2E5C647276FD
:100BB0005C6D6F64756C65735C6E7266785C647294
:100BC00069766572735C7372635C7072735C6E726B
:100BD00066785F7072732E63000000002DE9F843A1
:100BE000FC480768002500200090FB4E00BF1EE077
:100BF000012181403940C1B156F82010A9B101212D
:100C000081400D43002146F8201000BF00BF00BF07
:100C1000BFF36F8F00BF00BF00BF00BF00BF00BFAA
:100C2000BFF34F8F00BF00BF00BF411CC8B21928DF
:100C3000DED305F0807000287DD0012015E0E74963
:100C4000096800F1100201239340194059B1E349AA
:100C50000968012393401943E04A11600122DE49EB
:100C6000D83941F82020411CC8B20728E7DD01240B
:100C7000D8E0DA4800680121A140084000287CD073
:100C8000D64800680121A1400843D449086004EB1C
:100C9000440000EBC401D24800EBC100C16804EB82
:100CA000440000EBC402CE4830F83200814265D9DE
:100CB00004EB440000EBC401C94800EBC1008168AB
:100CC00004EB440000EBC402C54830F83200014494
:100CD00004EB440000EBC402C14800EBC200816099
:100CE00004EB440000EBC401BD4800EBC100C16847
:100CF00004EB440000EBC402B94830F83200091A92
:100D000004EB440000EBC402B54800EBC200C16034
:100D100004EB440000EBC401B14800EBC1000169E1
:100D200004EB440000EBC402AD4830F8320001444B
:100D300004EB440000E078E000EBC402A84800EBBC
:100D4000C200016104EB440000EBC401A44800EBC5
:100D5000C100C16804EB440000EBC402A04830F8B5
:100D60003200814215D904EB440000EBC4039C48D7
:100D700030F8332004EB440001E051E022E000EBC6
:100D8000C403974800EBC3008168204606F04AFC84
:100D900012E004EB440000EBC403914800EBC300F5
:100DA000C26804EB440000EBC4038D4800EBC300B1
:100DB0008168204606F036FC01218748FC3840F85F
:100DC00024102DE004EB440000EBC401844800EB48
:100DD000C100016904EB440000EBC402804800EB51
:100DE000C200C068014404EB440000EBC4027C482C
:100DF00000EBC2000161002104EB440000EBC402DF
:100E0000774800EBC200C16004EB440202EBC4036C
:100E1000734A02EBC30244F08000116909F0F2F951
:100E2000601CC4B2072C7FF724AF05F40000A8B300
:100E30006C486A49143109680170684918310968B9
:100E40004170664924310968644A2832126841EACF
:100E50000221818061492C310968604A3032126870
:100E600041EA0221C1805D491C3109685B4A203298
:100E7000126841EA0221418000BFA0F23460B0F85C
:100E80003A0610B90120584908655548001F90F8E6
:100E90003506052802D0534809F044F905F48000CE
:100EA00040B34E486C38006800904C496C3900984B
:100EB0000860009800F4807018B101204749C031E3
:100EC000086000BF009800F4806098B10120434999
:100ED0009C310860444988653E48006800F4001071
:100EE00018B900203C49543108604FF400103949CA
:100EF000091D086005F4001088B300203749A831A7
:100F0000096801F4807171B10120344954310968D4
:100F100001F4803139B90121334A91640122304909
:100F2000091F81F830262D49A431096801F4807128
:100F300071B101202A49091F91F83F16012907D1F3
:100F40000021274A121F82F83F160121264A5162CA
:100F500020B94FF400111F4A0832116000BF05F498
:100F60008010A8B31E48001F90F83006012856D103
:100F700000211B48001F80F83016184854300468C0
:100F80001748001FD0F8E40501191548001FC0F8E4
:100F9000E415D0F8EC0501191148001FC0F8EC1554
:100FA000D0F8E805011B0E48001FC0F8E815B0F89E
:100FB000DC05A04204D80A48001FD0F8E805A8B90B
:100FC0000748001FD0F8EC15082009F061F925E06A
:100FD00025E0000000730240007102406C74024082
:100FE000102100204027002000700240B148D0F8B6
:100FF000E815B0F8DC05814208D9AE48B0F8DC2528
:10100000D0F8E415082006F0F3FA07E0A948D0F874
:10101000E825D0F8E415082006F0EAFA00BF00241D
:10102000B0E04FF40050A040284000287ED0601C63
:10103000A14901EB8000D0F8A084601C00EB4001C6
:1010400001EBC0019D4800EBC100806800EB080186
:10105000601C00EB400202EBC002984800EBC200AB
:101060008160601C00EB400101EBC001934800EB84
:10107000C100006900EB0801601C00EB400202EBBC
:10108000C0028E4800EBC2000161601C00EB400111
:1010900001EBC001894800EBC100C068A0EB08016A
:1010A000601C00EB400202EBC002844800EBC2006F
:1010B000C160601C00EB400101EBC0017F4830F8CB
:1010C0003100404509D8601C00EB400101EBC00134
:1010D0007A4800EBC100C06870B9621C02EB4203A1
:1010E00003EBC203754A02EBC3021169621C02F0F2
:1010F0007F0009F0CDF842E0601C00EB400101EBFD
:10110000C0016E4800EBC100C168601C00EB4002EA
:1011100002EBC002694830F83200814218D9631CE2
:1011200003EB430C0CEBC30C644B00E028E033F8FA
:101130003C20631C03EB430C0CEBC30C5F4B03EB39
:10114000CC039968631C03F07F0006F051FA16E0A7
:10115000631C03EB430C0CEBC30C584B03EBCC03AD
:10116000DA68631C03EB430C0CEBC30C534B03EB2F
:10117000CC039968631C03F07F0006F039FA00BFC6
:10118000601CC4B2072CFFF64CAF05F48050D8B1F8
:101190004B4804684748D0F82C0301194548C0F86B
:1011A0002C13D0F82803011B4248C0F82813D0F8AC
:1011B000280310B90120404908653E48D0F82C1397
:1011C000002009F065F800BF05F48060C0B339481D
:1011D00090F83406C01148B3012830D13548006971
:1011E00034498988884211D932480069314989884F
:1011F000411A3048016140692E49898801442D48CF
:1012000041614169802008F0FDFF0EE029484169F5
:101210000069014427484161002101614169802042
:1012200008F0F0FF01202449086508E0214890F803
:101230003506052802D001201F49886200BF00BF83
:10124000002001E0411CC8B20728FBDB05F00100CB
:1012500070B301201A4974310860091F086000202A
:1012600009E000221449091D41F8202012492831C3
:1012700041F82020401C0828F3DB00200E4948627A
:101280008864104908600E48A03800680C49A039ED
:10129000096808430A49A03908600B4800680A49F0
:1012A0000831086009480449C1F8040309F032F81C
:1012B000BDE8F8830C2100200070024028240020A3
:1012C000A074024058710240007302400714C0012C
:1012D0000FB4054B10B503A9044A029800F018F8A2
:1012E00010BC5DF814FB0000C3320000840900202C
:1012F00002E008C8121F08C1002AFAD170477047DF
:10130000002001E001C1121F002AFBD1704700003C
:101310002DE9FF4F89B09B460446002506E02528AD
:101320000BD05A460B999047641C6D1C20780028FE
:10133000F5D10DB02846BDE8F08F0027B846012250
:10134000474900E0074314F8013F203B02FA03F04D
:101350000842F7D120782E2819D114F8010F47F050
:1013600004072A280ED06FF02F022078A0F1300158
:1013700009290CD808EB880102EB410100EB0108B8
:10138000641CF2E70A98641C50F8048B0A902078D9
:101390000028CED0642808D0692806D075281ED031
:1013A0005A460B9990476D1C58E00A994FF00A096C
:1013B00001C90A91002802DA40422D2102E03905D4
:1013C00004D52B218DF82010012103E0F90704D06A
:1013D0002021F7E78A4608AE0DE00021FAE70A99D6
:1013E0004FF00A0901C90A91F7E74946FFF77EF86D
:1013F000303106F8011D0028F7D1ADEB060000F1F1
:101400002009780701D44FF00108C84502DDA8EB98
:10141000090000E000208046002706E008A85A46A0
:10142000C05D0B9990476D1C7F1C5745F6DB04E0AF
:1014300030205A460B9990476D1CB8F10001A8F175
:101440000108F5DC05E016F8010B5A460B999047A8
:101450006D1CB9F10001A9F10109F4DC641C65E718
:10146000092801002DE9FE4307460D46164672B6CF
:1014700000BF05F025F900BF00BF04F0E5FD00281E
:10148000FBD100BF00BF6FF480403844B0B10128E9
:101490003CD134462D48408801280EDB2C49DFF82A
:1014A000B4C0A1EB0C01C9084FF0010C4CEA01409B
:1014B00029A1D4E9003204F083FF37E03446234801
:1014C0004088012813DBA06806F016F88046D4E9AE
:1014D00000108DE823001E491E4BC91AC9080123BC
:1014E00043EA0140434623A1A26804F0A3FF174842
:1014F0004088012809DB1649164A891AC9080122C1
:1015000042EA014025A104F045FF0FE00F48408862
:1015100001280ADB0E490F4A891AC908012242EA4A
:1015200001402A4622A104F03FFF00BF00BF00BFD8
:101530002548006800F0010000B100BE00BF32463F
:101540002946384600F042F8BDE8FE83A80A00208C
:1015500028C40000A0C30000415353455254494FD2
:101560004E204641494C45442061742025733A255C
:10157000750000004552524F52202575205B25739F
:101580005D2061742025733A25750D0A5043206152
:10159000743A20307825303878000000456E642099
:1015A0006F66206572726F72207265706F72740060
:1015B000554E4B4E4F574E204641554C542061746A
:1015C0002030782530385800F0ED00E018B50123C0
:1015D00000939DF800301E4B186059609A606FF4BC
:1015E0008043034463B1012B19D1194BDA60DB68E6
:1015F0001B68174CA3612346DB685B68E3610EE060
:10160000134B1A611B699B68114C636123461B696C
:101610001B68A36123461B695B68E36100BF00BFD1
:101620000B4B1B680A4B5B68094B9B68084BDB68DC
:10163000074B1B69064B5B69054B9B69044BDB69D8
:1016400072B600BF9DF80030002BFBD162B618BD0A
:101650005C19002070B504460D46204601F08BFD54
:1016600028B12946204601F075FD002070BD0520F7
:10167000FCE7034609B90E20704712B1501E104016
:1016800008B10920F8E71960501E98800020986082
:10169000D86000BFF0E770B504460D46204601F063
:1016A0006AFDA188884205D82946204601F071FDCF
:1016B000002070BD0420FCE70246501A20F07F4055
:1016C0007047000010B5024801F0ACFA10BD0000F0
:1016D000B80800202DE9F04105460F46144625B90B
:1016E0000CA140F22E2000F061FA24B909A140F2C9
:1016F0002F2000F05BFA14B90720BDE8F0812E68B6
:101700007461012F01D1012000E000203061002030
:10171000F3E700002E2E5C2E2E5C2E2E5C6472767B
:101720005C636F6D706F6E656E74735C6C69627212
:1017300061726965735C74696D65725C6170705F1C
:1017400074696D6572322E630000000038B513486D
:10175000006800900823582211491248006802F0DE
:10176000F1FD04460CB1204638BD0F4A69460F48CA
:1017700001F05EFA04460CB12046F5E701210B4862
:1017800001F064FB01230A4A1946084801F0FCF9FC
:101790000120084908702046E6E70000CCAB0000B5
:1017A0007C190020BCAB000037890000B80800207D
:1017B000FFFF7F00C40800202DE9F04106460D46DA
:1017C000174626B90DA140F23E2000F0EFF934464D
:1017D00094F8200010B10020BDE8F081A76101F06D
:1017E00079FD401941F10001C4E90201206900B10D
:1017F00025612146002007F075FCEDE72E2E5C2EBA
:101800002E5C2E2E5C6472765C636F6D706F6E65FD
:101810006E74735C6C69627261726965735C746921
:101820006D65725C6170705F74696D6572322E6394
:101830000000000070B5044624B907A14FF41570EC
:1018400000F0B4F92546002085F820002946012043
:1018500007F048FC70BD00002E2E5C2E2E5C2E2E54
:101860005C6472765C636F6D706F6E656E74735CD2
:101870006C69627261726965735C74696D65725CD2
:101880006170705F74696D6572322E6300000000D4
:101890002DE9F04188B004460E46174698462B487D
:1018A00007601EB9072008B0BDE8F081B08882B299
:1018B00027483168FFF7DDFE054600BF284600B126
:1018C000F1E700BFB08982B22248B168FFF7D1FECC
:1018D000054600BF284600B1E5E700BF20221E49AB
:1018E0006846FEF7ADFD60690690207C08B10120D6
:1018F00000E000208DF814008DF81C80607C08B199
:101900000E2000E000208DF81500E0680290A0682D
:1019100003902068019060680090104A6946104862
:1019200003F040FE054600BF284600B1BBE700BFFC
:1019300000200C4908702068401C28B101220A4987
:10194000074803F097FEAEE70020ACE77C090020D3
:10195000D4190020E41900204CAF00003993000096
:101960006809002082090020810900202DE9F0414A
:10197000054629461448FFF78EFE064606BB134C63
:10198000002720781249085C20B1201D06F088FD50
:10199000074608E020780E49085C20B904F10C00E5
:1019A00006F04AFB074600BF57B90A490648FFF749
:1019B00051FE28B901220749044803F09FFE06465C
:1019C0003046BDE8F0810000E419002068090020DD
:1019D0008C0800208009002010B5044606F07EFF28
:1019E000012803D003A1432000F0E0F800F04CF8F8
:1019F00010BD00002E2E5C2E2E5C2E2E5C647276A6
:101A00005C636F6D706F6E656E74735C6C6962722F
:101A100061726965735C7574696C5C6170705F7527
:101A200074696C5F706C6174666F726D2E63000018
:101A300010B5044606F052FF012803D003A151203F
:101A400000F0B4F800F02AF810BD00002E2E5C2E35
:101A50002E5C2E2E5C6472765C636F6D706F6E65AB
:101A60006E74735C6C69627261726965735C7574C3
:101A7000696C5C6170705F7574696C5F706C6174C7
:101A8000666F726D2E63000072B603480068401CDA
:101A90000149086070470000F00800200448006811
:101AA000401E034908600846006800B962B67047E6
:101AB000F008002070B505460C462068401C28B18F
:101AC000206804F077F9206804F054F86068401C3E
:101AD00018B10021606804F033F82868A169C0F8E3
:101AE000241500BF617D227D286841EA0203C0F809
:101AF0006C3500BFD4E90012286805F037FD207D61
:101B0000012814D1A068401C18B10021A06804F07D
:101B100017F8E068401C28B1E06804F04BF9E06871
:101B200004F028F8D4E90221286805F007FD70BD0B
:101B300070B505460C462068401C28B1206804F0AA
:101B400046F9206804F022F86068401C18B10021B2
:101B5000606804F002F82868A169C0F8241500BF85
:101B6000617D227D286841EA0203C0F86C3500BF20
:101B7000D4E90012286805F033FD207D012814D136
:101B8000A068401C18B10021A06803F0E6FFE068DF
:101B9000401C28B1E06804F01AF9E06803F0F6FF91
:101BA000D4E90221286805F0FCFC70BD7CB505462F
:101BB0000C46009501946A46002144F20200FFF7AA
:101BC00051FC7CBD2DE9F04106460B480B49401AFB
:101BD000070900250BE0094800EB05143046A16811
:101BE000FEF767FC10B92046BDE8F0816D1CBD42D0
:101BF000F1D30020F8E70000A0C3000080C300007C
:101C000070B503460025CD604D600E4D8D600025FA
:101C10000D60002400220DE00B4D05EB0210C5689D
:101C20002D79FF2D05D0A34202D185680D6007E014
:101C3000641C521C054D044EAD1BB2EB151FEBD3BB
:101C400000BF70BDB4AF000080C30000A0C300009F
:101C50002DE9F84F04460D461646A71C4FF0010823
:101C60000020FFF7B9FE3048406828602E484068E1
:101C70002D498968411A2D480068401CA0EB0109D4
:101C800015E001212A4802F0C5FB01F085FF8246DC
:101C90005146274802F0BEFB234840682249896824
:101CA000411A22480068401CA0EB010900BF4F45C3
:101CB000E7D8B8F1000F30D00021009176B100993B
:101CC00021F00301491C0091009921F00401091D34
:101CD0000091009964F3891100910DE0009921F0C1
:101CE0000301891C0091009921F00401091D009154
:101CF000009964F39F5100910B4949680B4A12689F
:101D00001140094A0C3202EB81000099016006493A
:101D1000496839440C3A516000BF0020FFF788FE43
:101D20004046BDE8F88F00008C1B0020BC09002055
:101D3000A81F002070B504460D460A2D03D10D21C1
:101D40002046FFF7F7FFA168481CA06020684554B3
:101D5000D4E90110884202D3204603F049FD70BD4A
:101D60000448806803494968884201D101207047CE
:101D70000020FCE78C1B00202DE9FC4704460D46A3
:101D8000164694F804906078202804D021281BD0AF
:101D9000222829D109E0E28868462968FEF750FB2D
:101DA0006946484607F080FE22E0A07800F001076F
:101DB000A078C0F340083946484607F069FE41461E
:101DC000484607F072FE13E06946484607F056FEA3
:101DD000286800990160BDF8041081809DF8061004
:101DE00081710720306003E04FF0FF30BDE8FC87D1
:101DF00000BF0020FAE7000010B50C48007898B149
:101E0000612240F2F6710A48FEF73AFB01200949C7
:101E10000870C20206490A39812008F0F1F800BFB3
:101E2000044800780028FBD110BD0000780800208D
:101E30006E0000206408002010B50B4807F094FEE7
:101E400007F0CAFD044607F0ADFD07F0C5FD0446E6
:101E500007F0A8FD054807F08DFD054807F08AFD4D
:101E600008F0E0FA10BD000064AA00006808002035
:101E700070080020012800D100E000BF00BF7047BB
:101E80000146024850F8210070470000F018002079
:101E900001460148405670472019002010B50446FD
:101EA00024B1012C7ED0022C7DD15DE09E480068DB
:101EB000002858D14FF480009C490860C0129B490B
:101EC000F831086000BF00BF00BFBFF36F8F00BFD5
:101ED00000BF00BF00BF00BF00BFBFF34F8F00BFF8
:101EE00000BF00BF00F06AF988B19148006858B996
:101EF00049F275308E49086003208E49086049F226
:101F000075308B49086002E003208A49086000F0C0
:101F100037F998B18648006860B949F2753084494C
:101F20000860C02082491431086049F27530804948
:101F3000086003E0C0207E491431086001207A491E
:101F4000086000BF00BF00BFBFF36F8F00BF00BFBE
:101F500000BF00BF00BF00BFBFF34F8F00BF00BF77
:101F600000BF01F0D9F9DDE06F48001D006818B12D
:101F700001F0E6F900B1D5E000BF6C48F830006828
:101F800000F400600028F8D04FF400606749F83191
:101F9000086000BF00BF00BFBFF36F8F00BF00BF6E
:101FA00000BF01E074E0BCE000BF00BF00BFBFF3B2
:101FB0004F8F00BF00BF00BF00F0E2F898B15C484F
:101FC000006860B949F275305949086000205849E5
:101FD0001431086049F275305549086003E000206B
:101FE00053491431086000F0E9F888B1504800689E
:101FF00058B949F275304E49086000204D490860D3
:1020000049F275304A49086002E0002049490860F9
:1020100000F098F8B0B140F2E37047490860402002
:10202000091D086000BF00BF00BFBFF36F8F00BF76
:1020300000BF00BF00BF00BF00BFBFF34F8F00BF96
:1020400000BF00BF802038491C310860012037499B
:10205000091F086080213948C0F8841100BF01F0D1
:102060006FF90028FBD001202F49091D086000BF2F
:1020700000BF00BFBFF36F8F00BF00BF00BF00BF36
:1020800000BF00BFBFF34F8F00BF00BF00BF49E0DC
:1020900025480068F0B300202349091D086000BFEF
:1020A00000BF00BFBFF36F8F00BF00BF00BF00BF06
:1020B00000BF00BFBFF34F8F00BF00BF00BF802134
:1020C0001E488430016000BF00BF00BFBFF34F8FC8
:1020D00000BF00BF00BF00BF00BF00BFBFF36F8FD6
:1020E00000BF00BF00BF1148083800681449C1F89C
:1020F000080300200C49086000BF00BF00BFBFF309
:102100006F8F00BF00BF00BF00BF00BF00BFBFF3A5
:102110004F8F00E004E000BF00BF00BF01F0F8F8FF
:1021200000E000BF00BF10BD007502400873024010
:1021300000EC064014ED06400078024000E100E0AB
:10214000007002400D4802684FF08050D0F8341102
:10215000082A11D131B1012906D0022906D003295C
:1021600008D105E0012070470120FCE70120FAE7D3
:102170000120F8E70120F6E70020F4E73001001025
:102180000D4802684FF08050D0F83411082A11D160
:1021900031B1012906D0022906D0032908D105E072
:1021A000012070470120FCE70120FAE70120F8E751
:1021B0000120F6E70020F4E7300100100D48026826
:1021C0004FF08050D0F83411082A11D131B10129D3
:1021D00006D0022906D0032908D105E00020704767
:1021E0000120FCE70120FAE70120F8E70120F6E7EB
:1021F0000020F4E73001001010B5044624B909A10D
:102200004FF4EA70FFF7D2FC206920B905A14FF422
:10221000EA70FFF7CBFC0F4A0FA1206903F0A6FA82
:1022200010BD00002E2E5C2E2E5C2E2E5C6472766D
:102230005C636F6D706F6E656E74735C6C696272F7
:1022400061726965735C636C695C6E72665F636C16
:10225000692E630086AD0000257300000146886882
:10226000D0F84801C0F3C000704700002DE9F043EA
:102270008FB004460F464FF00009E168496800221C
:1022800008680EA904F09EFB18B100200FB0BDE84D
:10229000F083A7B10E9804F0FAFAA068D0F83801DC
:1022A000401CA168C1F83801A06890F8380100F01E
:1022B0000700012801D1814601E00120E6E7204620
:1022C00001F03EFF0546A878012805D9A878401EF0
:1022D000C1B2204600F01CFC2878012805D92878D6
:1022E000401EC1B2204600F031FB2046FFF784FFBC
:1022F000B9F1000F06D037A20221204602F0CEFE2F
:102300000120C3E700BF4FF00008434608220BA995
:102310000E9804F0CBFA4FF008080D980890BDF81D
:102320003000ADF82400BDF83200ADF826000020E2
:102330008DF829000B9800F00300012818D10B98A4
:10234000860A0B98C0F3C2008DF828000B98C0F3E2
:102350008315AA00434602A90E9804F0A7FA206943
:1023600008AB2A4602A90090304604F0C1F923E0E8
:102370000B9800F0030002281ED10B98860D0B98D5
:10238000C0F3C2008DF8280000BF082E01D23046ED
:1023900000E00820054643462A4606A90E9804F0A8
:1023A00085FAA844761B08AA294606A8236904F0E2
:1023B0005DF8002EE9D100BF0E9804F068FAE168DC
:1023C0004968002208680EA904F0FCFA00289AD097
:1023D00001205BE74C6F7374206C6F6773202D20B6
:1023E000696E637265617365206C6F6720626163FB
:1023F0006B656E642071756575652073697A652EED
:102400000A00000070B504460D462A4602A1206964
:1024100003F0ACF970BD0000256300002DE9F04128
:1024200004460D4616461F4604B125B90BA140F2DD
:102430002310FFF7BBFB606820B908A14FF492702E
:10244000FFF7B4FB606801683B463246D1F810C024
:102450002946E0478046BDE8F08100002E2E5C2E24
:102460002E5C2E2E5C6472765C636F6D706F6E6591
:102470006E74735C6C69627261726965735C636CC3
:10248000695C6E72665F636C692E630010B504460A
:102490000CB9002010BD2046FEF704F8FAE7000052
:1024A0002DE9F04106460F4634460025606890F855
:1024B000280058B1A1680868FFF7BCF9054625B1A6
:1024C000082D02D02846BDE8F08100259FB1606943
:1024D00003F036F9626802F108010022606903F036
:1024E00061F805462DB90120616881F829000020B6
:1024F000E9E70620E7E7606890F8280048B9084A4D
:102500000021A068FFF7E6F805460120616881F820
:1025100028001DB9204606F02BFB05462846D2E7C9
:102520001D9000002DE9F04706460D4617469846D7
:102530003446606807606068C0F804800020616805
:1025400081F82800616881F82900A946616801F1D5
:10255000080020224946FDF773FFC9F81040094AD8
:102560004946606903F01EF88246BAF1000F05D1B2
:10257000E06804F079FE206904F076FE5046BDE87C
:10258000F0870000119200002DE9F04705468846CB
:1025900016461C461CB907A1F820FFF707FB2F467B
:1025A000266022464146F86804F0EEFC8146484623
:1025B000BDE8F0872E2E5C2E2E5C2E2E5C6472768B
:1025C0005C636F6D706F6E656E74735C6C69627264
:1025D00061726965735C636C695C756172745C6E71
:1025E00072665F636C695F756172742E63000000D0
:1025F00070B504462546686903F0A2F8A968086822
:10260000FFF718F970BD00002DE9FC5F80468A468F
:1026100091461E4626B922A14FF48670FFF7C6FAEE
:102620004446C6F8009032465146206904F020FD29
:102630000746002F31D16569834628782749085C11
:1026400020B1281D05F02CFF834608E02878234997
:10265000085C20B905F10C0005F0EEFC834600BFD4
:10266000BBF1000F19D1FF20009001236A4601A998
:10267000206904F087FD78B90099CAB260690199B0
:1026800003F01AF80746606890F8290020B11FB9D6
:102690002069009904F05AFD00BF3846BDE8FC9F50
:1026A0002E2E5C2E2E5C2E2E5C6472765C636F6D1B
:1026B000706F6E656E74735C6C696272617269656D
:1026C000735C636C695C756172745C6E72665F6387
:1026D0006C695F756172742E630000008C080020C5
:1026E0002DE9F84304460E4615461F4604B11EB9AF
:1026F00024A1F420FFF75AFA6068006818B921A1F4
:10270000F520FFF753FA4FF0000833E006EB08011D
:10271000606802686B46D2F80CC02A46E0478146E2
:10272000B9F1000F03D017A1FF20FFF73FFA00987F
:10273000854204D213A14FF48070FFF737FA009856
:10274000804400982D1A009898B9A0680078032852
:102750000FD000BFA068D0F84801C0F34010002897
:10276000F8D0A068D0F8480120F02000A168C1F896
:10277000480100BF002DC9D10FB100983860BDE8F5
:10278000F88300002E2E5C2E2E5C2E2E5C6472765A
:102790005C636F6D706F6E656E74735C6C69627292
:1027A00061726965735C636C695C6E72665F636CB1
:1027B000692E630070B505460DB9094C01E0084C5F
:1027C000083409E0204600F09BFF064606B904E005
:1027D00028467168884700BFF4E700BF70BD00005D
:1027E0009418002010B504462CB901200649487001
:1027F0000020FFF7DFFF012C04D10120024988707F
:10280000FFF7D8FF10BD00008C1800202DE9F05F05
:102810000546894616461C460A9F24B92AA14FF44C
:102820009C70FFF7C3F927B927A140F23910FFF7D1
:10283000BDF9B9F1000F27D12F483049401AB6EB46
:10284000D00F1ED24FF0000ADFF8B4B0D04611E02E
:102850002A4800EBC80ADAF804205BF82600116861
:10286000FDF727FE20B9DAF804002060BDE8F09FEC
:1028700008F1010820482149401AB8EBD00FE7D3EE
:1028800000BF00202060F1E715B900202060EDE7CF
:10289000287850B1394630466A689047386810B990
:1028A000002020600DE027600BE0686800EB061058
:1028B000006820B1686800EB0610206001E000208D
:1028C000206000BFD2E700002E2E5C2E2E5C2E2E44
:1028D0005C6472765C636F6D706F6E656E74735C52
:1028E0006C69627261726965735C636C695C6E725B
:1028F000665F636C692E630080C3000048C30000FC
:10290000480A00202DE9F047024613468C46D3E9D9
:102910000245DCE90267B6EB040877EB050002D359
:102920000120BDE8F0870020FBE7000070B50546F8
:102930000C46002C04DD224602A1286902F016FF95
:1029400070BD00001B5B25644200000070B50546A9
:102950000C46002C04DD224602A1286902F006FF85
:1029600070BD00001B5B25644400000010B50446E8
:1029700002A1206902F0FAFE10BD00000A0000006A
:102980002DE9FC5F0446002600270020009000256A
:10299000A16801F1A0008021FDF779FD524920696D
:1029A00002F0E4FE204606F0BEFBA94696E000BF1A
:1029B00001AB012269462046FFF730FD019868B956
:1029C00040F2E738B8F1000F00D106E0DFF81CA1B3
:1029D0004FEA881B5846D04700BF77E09DF80000BB
:1029E0001B2805D0A06890F8A0001B2800D06DE03F
:1029F0009DF80000522858D10021A068A030415510
:102A0000A06890F8A1005B2806D00020A16881F89A
:102A1000A0000B20BDE8FC9F02250FE0A068A030BD
:102A200029466A1CD5B2405C303807EB870100EBC1
:102A3000410087B2802D01DB0C20EBE7A068A030BD
:102A4000405D3B28EAD1681CC0B20546802801DB06
:102A50000C20DFE70FE0A068A03029466A1CD5B241
:102A6000405C303806EB860100EB410086B2802DD9
:102A700001DB0C20CEE7A068A030405D0028EAD141
:102A8000FA2E03D9FA20A168087501E0A1680E7535
:102A9000FA2F03D9FA21A068817501E0A068877533
:102AA0000020A16881F8A000B4E79DF80010A0689C
:102AB000A0304155681CC0B20546092805D9002040
:102AC000A16881F8A0000420A4E700BF01980028B5
:102AD0007FF46EAF09F101001FFA80F9B9F57A7F32
:102AE000FFF665AF0D2095E790AD000081AD0000C9
:102AF00070B505460C46002C04DD224602A128696B
:102B000002F034FE70BD00001B5B25644300000032
:102B100070B505460C46002C04DD224602A128694A
:102B200002F024FE70BD00001B5B25644100000024
:102B300010B50021034801F099FC044684F310000D
:102B400010BD0000A81F002070B505460C464FF4CC
:102B5000803000FA04F1284600F074FA70BD70B5B8
:102B600004460D462946206804F0ACFB70BD70B5E4
:102B700005460C464FF4A07000EB840086B2314647
:102B8000284600F0B9FA70BD2DE9F04704460D461D
:102B900016461F461CB916A19620FFF707F84FF4FA
:102BA000803000FA05F84FF4A07000EB85001FFAA2
:102BB00080F926F07F464146206804F09FFB41469D
:102BC000206804F095FB4946206804F08AFB3246F1
:102BD0002946206804F07CFB4146206804F08BFB0A
:102BE0001FB14146206804F08CFBBDE8F08700006F
:102BF0002E2E5C2E2E5C2E2E5C6472765C636F6DC6
:102C0000706F6E656E74735C6C6962726172696517
:102C1000735C74696D65725C6472765F7274632E46
:102C20006300000010B50446206804F056FB10BD98
:102C30002DE9F04704460D4616461CB943A1552020
:102C4000FEF7B4FF1DB941A15620FEF7AFFF1EB934
:102C50003EA15720FEF7AAFF6079494941F820605C
:102C60006079484901EBC000007988B108274648DF
:102C70004088022809DB4549454A891AC9080222C9
:102C800042EA014043A103F085FB3846BDE8F087E6
:102C9000B5F80080D4F80090B8F5805F04D346A161
:102CA0004FF4BE70FEF782FFC9F8088500BF94F9A3
:102CB000048095F80290B9F1080F03DB48A16B205E
:102CC000FEF774FF40464946002804DB4A07130E0E
:102CD0004E4A135408E04A074FEA126C4C4A00F07F
:102CE0000F031B1F02F803C000BF00BF94F90410BC
:102CF000084600280DDB00BF00BF00F01F030122C3
:102D00009A4043099B0003F1E023C3F8002100BF70
:102D100000BF00BF00BF012061791A4A02EBC10168
:102D200008716079114641F8304000271648408804
:102D3000032809DB1549164A891AC908032242EA01
:102D4000014034A103F026FB38469FE72E2E5C2E6F
:102D50002E5C2E2E5C6472765C636F6D706F6E6598
:102D60006E74735C6C69627261726965735C7469BC
:102D70006D65725C6472765F7274632E630000002E
:102D8000F4080020F80800208C0A0020F0C300009E
:102D9000A0C3000052544320696E7374616E636572
:102DA00020616C726561647920696E697469616C17
:102DB000697A65642E0000002E2E5C2E2E5C2E2E6D
:102DC0005C6472765C6D6F64756C65735C6E726664
:102DD000785C68616C2F6E72665F7274632E680037
:102DE0002E2E5C2E2E5C2E2E5C6472765C696E74C8
:102DF0006567726174696F6E5C6E7266785C6E7224
:102E000066785F676C75652E6800000000E400E07E
:102E100018ED00E05254433A20696E697469616CA0
:102E2000697A65642E00000010B5014691F904002E
:102E3000002807DB00F01F0301229A40024B4409DF
:102E400043F8242000BF10BD00E200E070B5054645
:102E50000C4622460221284600F020F970BD10B52C
:102E600004464FF48271204600F046F910BD000080
:102E700010B504461CB904A18720FEF797FE002177
:102E8000206804F041FA10BD2E2E5C2E2E5C2E2EF2
:102E90005C6472765C636F6D706F6E656E74735C8C
:102EA0006C69627261726965735C74696D65725C8C
:102EB0006472765F7274632E6300000010B504467E
:102EC0001CB904A18D20FEF771FE0421206804F0D6
:102ED0001BFA10BD2E2E5C2E2E5C2E2E5C6472769C
:102EE0005C636F6D706F6E656E74735C6C6962723B
:102EF00061726965735C74696D65725C6472765F3A
:102F00007274632E630000002DE9F84F0446884672
:102F1000154699461CB93EA1CD20FEF747FE4FF459
:102F2000803000FA08FA4FF4A07000EB88001FFA16
:102F300080FB25F07F455146204600F083F820684D
:102F400004F0CBF906464146206804F0BBF9009036
:102F500032464146206804F0BBF95946206804F027
:102F6000C0F93146009805F0F9FF012806D110207C
:102F700004F00AFC5946206804F0B3F9206804F014
:102F8000ACF906463146284605F0E8FF07465146AB
:102F9000206804F0B0F9012F0FD16A1C4146206867
:102FA00004F096F9102004F0EFFB206804F095F986
:102FB000B04225D00D20BDE8F88F2A464146206852
:102FC00004F086F9206804F088F90646681E314648
:102FD00005F0C4FF07466FF07F40A0EB0900B84240
:102FE00001D20D20E7E75FB96A1C4146206804F072
:102FF0006FF9206804F071F9B04201D00D20DAE7D2
:1030000001225146204600F049F80020D3E7000095
:103010002E2E5C2E2E5C2E2E5C6472765C636F6DA1
:10302000706F6E656E74735C6C69627261726965F3
:10303000735C74696D65725C6472765F7274632E22
:103040006300000070B504460D461CB906A1B3200C
:10305000FEF7ACFD2946206804F04AF929462068AD
:1030600004F04CF970BD00002E2E5C2E2E5C2E2E2E
:103070005C6472765C636F6D706F6E656E74735CAA
:103080006C69627261726965735C74696D65725CAA
:103090006472765F7274632E6300000070B504463C
:1030A0000E4615461CB907A1A920FEF77FFD314643
:1030B000206804F020F91DB13146206804F021F9A0
:1030C00070BD00002E2E5C2E2E5C2E2E5C6472765F
:1030D0005C636F6D706F6E656E74735C6C69627249
:1030E00061726965735C74696D65725C6472765F48
:1030F0007274632E6300000070B504460D461CB95F
:1031000007A1BA20FEF752FD2068415929B129468E
:10311000206804F0E6F8012070BD0020FCE7000004
:103120002E2E5C2E2E5C2E2E5C6472765C636F6D90
:10313000706F6E656E74735C6C69627261726965E2
:10314000735C74696D65725C6472765F7274632E11
:103150006300000070B504460D462A460021204653
:1031600000F00EF8A068401CA06070BD01468A689F
:10317000C868801A704701468A68C868801A704714
:1031800010B583680B44848823400468E35C1370A3
:1031900010BDC26883881A4003689954C268521CE3
:1031A000C26070472DE9F04780460D4617469A46A3
:1031B0000DB9BDE8F087BAF1000F03D0F9B240466F
:1031C000FFF796FC002400E0641CFDF735F9006869
:1031D000295D405C00F001000028F5D16AE000267E
:1031E0002846FFF753F9A0EB0409D8F80800407E01
:1031F000C01B484522D300BF17E02819805D0A286C
:1032000012D1404605F08FFF29190023324640466F
:10321000FFF766FA701C04444046FFF7A7FBF9B2BB
:103220004046FFF765FC02E0761C4E45E5D300BF43
:103230002919D8F8100002F099FA3CE0D8F80800F3
:10324000407EA0EB070916E0FDF7F6F800682919A3
:10325000895D405C00F0010028B1B1462819805D0D
:103260000A2800D108E0F119D8F80800407E814210
:1032700000D301E0761CE7E700BF404605F053FFAE
:10328000291900234A464046FFF72AFA4C4400E039
:10329000641CFDF7D1F80068295D405C00F0010076
:1032A0000028F5D14046FFF761FBF9B24046FFF731
:1032B0001FFC00BF93E700BF4046FFF757FB00BF6E
:1032C00077E770B504460D46E0B2FEF74FFB2046A7
:1032D00070BD000070B50B48FFF7A4FC0A4B0CCB87
:1032E000841843F10005094903C9201A75EB010050
:1032F00004D24FF08073E41845F1000520462946BA
:1033000070BD0000B8080020C8080020D0080020C8
:10331000012081074860704708B500F011F800B13E
:1033200008BD0020054908608805D0F8000100901C
:1033300000BF01208107086000BFF1E700010040E5
:103340000548006800F00110B0F1011F01D1012013
:1033500070470020FCE700000C04004010B5034655
:103360000020002108E007248C401C40CC40A2B281
:10337000824200DD1046C91C0A29F4D310BD2DE994
:10338000FC5F83460E4691461F46DDE90C45002E44
:1033900001DA704200E0304682464FF0010803E057
:1033A0009AFBF9FA08F10108CA45F9DA474500D94C
:1033B000B84634B1002E03DB05F00400042800D128
:1033C000641E05F0020000B167B105F0010048B9C4
:1033D00044B104E0641E20215846FEF7ABFC0CB15A
:1033E000A045F7D3002E05DA76422D215846FEF788
:1033F000A1FC07E005F00400042803D12B21584666
:10340000FEF798FC05F0020002280DD105F001003E
:1034100050B94FB944B104E0641E30215846FEF75C
:1034200089FC0CB1A045F7D33B464A463146584685
:10343000CDE9004506F0A6F9BDE8FC9F70B505464C
:103440001249286804F080F8286804F0ADF90446B1
:103450002046002817DB00F01F02012191400C4A92
:10346000430942F8231000BF00BF00BFBFF34F8FD6
:1034700000BF00BF00BF00BF00BF00BFBFF36F8F22
:1034800000BF00BF00BF00BF00BF70BD84020200CC
:1034900080E100E070B505461249286804F087F81D
:1034A000286804F085F904462046002817DB00F060
:1034B0001F02012191400C4A430942F8231000BF2A
:1034C00000BF00BFBFF34F8F00BF00BF00BF00BFF2
:1034D00000BF00BFBFF36F8F00BF00BF00BF00BFC2
:1034E00000BF70BD1003420080E100E02DE9F04113
:1034F00004460F464FF48E71206804F018F84FF41C
:10350000A271206804F013F81D49206804F01FF828
:10351000206804F049F905463E46082E03DB19A150
:103520006B20FEF743FB28463146002804DB4A07A0
:10353000130E1F4A135408E04A074FEA126C1D4A43
:1035400000F00F031B1F02F803C000BF00BF20687C
:1035500004F02AF90546284600280DDB00BF00BF0D
:1035600000F01F02012191404209920002F1E02285
:10357000C2F8001100BF00BF00BF00BFBDE8F0816E
:10358000800002002E2E5C2E2E5C2E2E5C64727645
:103590005C696E746567726174696F6E5C6E726689
:1035A000785C6E7266785F676C75652E68000000E7
:1035B00000E400E018ED00E02DE9F04104460F467C
:1035C0004FF48871206803F0E5FF4FF49071206894
:1035D00003F0E0FF4FF49271206803F0DBFF4FF43B
:1035E000A271206803F0D6FF4FF4AC71206803F09D
:1035F000D1FF1E49206803F0DDFF206804F0D8F8F1
:1036000005463E46082E03DB19A16B20FEF7CEFAD5
:1036100028463146002804DB4A07130E1F4A13547C
:1036200008E04A074FEA126C1D4A00F00F031B1F07
:1036300002F803C000BF00BF206804F0B9F80546D7
:10364000284600280DDB00BF00BF00F01F0201214B
:1036500091404209920002F1E022C2F8001100BF3D
:1036600000BF00BF00BFBDE8F081000010034200B2
:103670002E2E5C2E2E5C2E2E5C6472765C696E742F
:103680006567726174696F6E5C6E7266785C6E728B
:1036900066785F676C75652E6800000000E400E0E6
:1036A00018ED00E030B5024600201378C3F3800324
:1036B000D3B1137803F00303012B02D0022B10D1F6
:1036C00007E01388C3F383139B1C0C6823440B602F
:1036D00008E00B680225146805EB945423440B6042
:1036E00000E000BF00BF012030BD0000034890F89B
:1036F0005D0108B1012070470020FCE7AC1F0020ED
:103700000146086808B102680A60704710B50446AF
:1037100022460221002002F063FA002105E054F85D
:10372000210008B1012010BD491C0229F7D3002057
:10373000F9E7000070B504460D461646034B3246C5
:103740002946204601F098F870BD00005539000068
:1037500070B504460D461646034B324629462046B0
:1037600001F08AF870BD00001D3B000070B50446F2
:103770000D461646034B32462946204601F07CF89A
:1037800070BD0000333B000070B504460D46164680
:10379000034B32462946204601F06EF870BD00000A
:1037A000AD3C00007CB506460D461446012D03D005
:1037B000304601F092FE28B100221146304601F059
:1037C000CDFC7CBD05A16068CDE9001009A20221F5
:1037D0003046236801F062FC00BFF2E720756E6B93
:1037E0006E6F776E20706172616D657465723A20DC
:1037F0000000000025733A257325730D0A000000B0
:103800002DE9FC47074688469146384601F065FE9B
:1038100030B100221146384601F0A0FCBDE8FC871B
:1038200014481549401A060900251EE0124800EB0D
:103830000514E0680079FF2806D110A20821384657
:10384000A36801F02BFC0FE0E0680079E16849799A
:1038500009B112A100E013A1CDE9001014A20821C2
:103860003846A36801F01AFC6D1CB542DED300BFD8
:10387000D4E70000A0C3000080C3000025730D0A38
:10388000092D205374617475733A20646561637403
:103890006976617465640D0A0D0A0000656E6162E7
:1038A0006C65640064697361626C656400000000AB
:1038B00025730D0A092D205374617475733A202500
:1038C000730D0A092D2049443A2025640D0A0D0A7A
:1038D0000000000070B504460D461646204601F073
:1038E000FCFD28B100221146204601F037FC70BDD6
:1038F00003A20221204601F0D1FB00BFF7E7000040
:103900004E6F7420737570706F727465642E0D0A3B
:103910000000000070B504460D461646204601F032
:10392000DCFD28B100221146204601F017FC70BDD5
:1039300003A20221204601F0B1FB00BFF7E700001F
:103940004E6F7420737570706F727465642E0D0AFB
:10395000000000002DE9FE4F8246894616461D46AE
:103960004FF0000BD9F80C0000790290002E5ED0C9
:10397000072243A12868FCF7AAFD002828D1012EC0
:1039800006D141A20221504601F088FBBDE8FE8F1E
:10399000022E01D14FF0010B002409E0404A52F8F9
:1039A00024100A226868FCF792FD00B902E0641C4A
:1039B000052CF3D300BF052C06D13AA202215046B4
:1039C0006B6801F06BFBE1E7E7B24FF0020813E030
:1039D00008223CA12868FCF77AFD30B9012E00D1FD
:1039E000B34600274FF0010806E038A202215046F6
:1039F0002B6801F053FBC9E7BBF1000F18D000247E
:103A000011E03A462146029800F034FB50B90021FB
:103A1000204602F043FE034632A2022101905046A6
:103A200001F03CFB641C02F0D5FDA042E9D825E082
:103A3000444621E00020019055F8240001A900F03F
:103A400031FB38B955F824302FA20221504601F03D
:103A500025FB10E03A46DDE9011000F00BFB50B900
:103A60000021019802F01AFE03461EA202210090D6
:103A7000504601F013FB641CB442DBD300BF85E762
:103A8000656E61626C650000426164207061726104
:103A90006D6574657220636F756E742E0D0A00007B
:103AA000C0090020556E6B6E6F776E20736576656A
:103AB00072697479206C6576656C3A2025730D0AFD
:103AC0000000000064697361626C6500556E6B6E86
:103AD0006F776E206F7074696F6E3A2025730D0AD0
:103AE000000000004C6576656C20756E617661693A
:103AF0006C61626C6520666F72206D6F64756C65B9
:103B00003A2025730D0A0000556E6B6E6F776E209C
:103B10006D6F64756C653A25730D0A002DE9F041EF
:103B200005460C4616461F46204602F0C7F9BDE87A
:103B3000F08130B500BF0024CD686C7100BF30BD8E
:103B400070B504460D46164633462A462046E168BF
:103B5000FFF700FF70BD70B504460D4616463346AC
:103B60002A462046E168FFF7D9FF70BD70B50446CC
:103B70000D46164633462A462046E168FFF7D9FF30
:103B800070BD70B504460D46164633462A4620469B
:103B9000E16800F08BF870BD2DE9FF410027304847
:103BA00000F02AFC2E48001F00F026FC2D488068FB
:103BB00003902D480568039828402A490C3101EBF1
:103BC000800800BF03A94046FFF76CFD30B10398A1
:103BD000284024490C3101EB800800E000E0F1E7C7
:103BE00000BF00240AE00398411C284003911D49AE
:103BF0000C3151F820004DF82400641C022CF2D343
:103C0000009800F0030001280DD0022814D1BDF85F
:103C100006700421009801EB9050401E039901EBBF
:103C2000900003900EE0BDF806700098C0F383107A
:103C300003990844039005E00CA14FF4C270FDF70E
:103C4000B5FF00BF00BF0648001F00F0CEFB0646D0
:103C500016B1044903988860384604B0BDE8F08185
:103C6000A41F00208C1B0020BC0900202E2E5C2EDF
:103C70002E5C2E2E5C6472765C636F6D706F6E6569
:103C80006E74735C6C69627261726965735C6C6F8F
:103C9000675C7372635C6E72665F6C6F675F66729F
:103CA0006F6E74656E642E63000000002DE9FF5F87
:103CB00080460D4602F08EFC814600BFE8684079E0
:103CC00020B923A20221404601F0E8F925A328A249
:103CD0000821404601F0E2F92DA20821404601F0FA
:103CE000DDF9002430E0E86890F804A001231A46CA
:103CF0002146504602F078FC8346002301222146EB
:103D0000504602F071FC0646032E01DA304600E010
:103D1000032007460121204602F0C0FC0390B74271
:103D200001DA2BA200E029A22A4850F827002949ED
:103D300051F82B10CDE90102009127A2082140463D
:103D4000039B01F0ABF9641C4C45CCD3BDE8FF9F4D
:103D50004C6F6773206172652068616C74656421C3
:103D60000D0A00006D6F64756C655F6E616D6500B6
:103D7000252D343073207C2063757272656E74203B
:103D80007C206275696C742D696E200D0A0000003C
:103D90002D2D2D2D2D2D2D2D2D2D2D2D2D2D2D2D53
:103DA0002D2D2D2D2D2D2D2D2D2D2D2D2D2D2D2D43
:103DB0002D2D2D2D2D2D2D2D2D2D2D2D2D2D2D2D33
:103DC0002D2D2D2D2D2D2D2D2D2D0D0A000000001A
:103DD0002A000000C0090020252D343073207C20EB
:103DE000252D3773207C20257325730D0A000000D4
:103DF0008AB04FF48041002002F096FB01F098FB5E
:103E0000002001F0B7FBFDF7A1FC1822204904A80F
:103E1000FCF716FB00BF1F4800904FF48070019024
:103E20001D4802904FF48070039007231B4A694697
:103E300004A8FDF72DFD044600BF00BF254635B19F
:103E400000BF17A29D212846FCF7E6F900BF00BF7E
:103E500017A0FDF73DFAFDF7EFFF1CA0FDF738FABC
:103E600041F2883505B90EE000BF4FF47A7606B905
:103E700005E01D4F4FEA86184046B84700BF681E50
:103E8000051EF2D100BF01E0FDF7B6FFFCE7000020
:103E90004CAA00008C0E00208C0F0020D191000055
:103EA0002E2E5C2E2E5C2E2E5C6D61696E2E6300B4
:103EB00055534244206578616D706C652073746160
:103EC000727465642E200D0A000000006364632094
:103ED00061636D206578616D706C652073746172CB
:103EE0007465642E200D0A0041AA0000F0B50B3065
:103EF000154D20F007010024144A0FE003688B429F
:103F00000BD38B4205D95E1A43184768C3E9006793
:103F100000E04368136002C004E0021D106800283E
:103F2000ECD12046002802D1286808B10020F0BD5D
:103F3000064A07481060074A121A22F00702C0E931
:103F4000002401202860D7E7440A0020400A00200E
:103F500054270020504700202DE9FF4F87B0054629
:103F600093461E461DB935A1B620FDF71FFE2F460C
:103F70002C46F8883D4679794843001F06900698FC
:103F8000864203D32DA1C420FDF710FEB7F80680AA
:103F9000301DB0FBF8F00590301DB0FBF8F108FBC8
:103FA00011000490DBF8000081190698814202D9C3
:103FB0000698801B01E0DBF800008146CBF80090FA
:103FC00003E024680598401E059005980028F8D164
:103FD00003900498A8EB000ACA4501D9484600E0BE
:103FE0005046824623E00399089808440290201D19
:103FF000049908440190149828B15246DDE9011053
:10400000FCF71EFA04E05246DDE90101FCF718FA5C
:10401000002004902468A9EB0A09039850440390F7
:10402000C84501D9484600E04046824600BFB9F184
:10403000000FD8D10BB0BDE8F08F00002E2E5C2E03
:104040002E5C2E2E5C6472765C636F6D706F6E6595
:104050006E74735C6C69627261726965735C6D65C4
:104060006D6F626A5C6E72665F6D656D6F626A2EFF
:10407000630000002DE9F04105460E46144600237A
:104080001A463146284602F0AFFA0746BC4202DD26
:104090000020BDE8F08122463146284602F0D4FADD
:1040A0000120F6E72DE9F04105460E4602F092FAAE
:1040B000074600240DE00021204602F0EFFA80467A
:1040C000202229464046FCF702FA08B9346002E093
:1040D000641CBC42EFD300BFBC4202D00120BDE84B
:1040E000F0810020FBE7000070B503460C469CB150
:1040F00002F070FA054600220AE0084800EB82014F
:1041000008881E68B04202D11A60002070BD521C9F
:10411000AA42F2D30520F9E70020F7E7640A00205D
:1041200070B505460C460020E06060600348A06062
:104130000121284602F0B2FA206070BDA4AF000051
:1041400070B50546AE68A86800F114042868FEF74B
:104150009DF9A071F07FA1790844617990FBF1F29B
:1041600001FB1200401C2070F07FA17908446179A6
:1041700090FBF1F0401CA070B07FA17908446179F8
:1041800090FBF1F0401CE070B07FA17908446179A8
:1041900090FBF1F201FB1200401C6070204670BDE4
:1041A0000D4802684FF08050D0F83411082A11D120
:1041B00031B1012906D0022906D0032908D105E032
:1041C000012070470020FCE70020FAE70020F8E714
:1041D0000020F6E70020F4E7300100100D480268E7
:1041E0004FF08050D0F83411082A11D131B1012993
:1041F00006D0022906D0032908D105E00120704726
:104200000020FCE70020FAE70020F8E70020F6E7AE
:104210000020F4E7300100100D4802684FF0805094
:10422000D0F83411082A11D131B1012906D0022960
:1042300006D0032908D105E0012070470020FCE7E3
:104240000020FAE70020F8E70020F6E70020F4E776
:10425000300100100D4802684FF08050D0F8341142
:10426000082A11D131B1012906D0022906D003292B
:1042700008D105E0012070470120FCE70120FAE7A2
:104280000120F8E70120F6E70020F4E730010010F4
:104290000D4802684FF08050D0F83411082A11D12F
:1042A00031B1012906D0022906D0032908D105E041
:1042B000012070470120FCE70120FAE70120F8E720
:1042C0000120F6E70020F4E7300100100D480268F5
:1042D0004FF08050D0F83411082A11D131B10129A2
:1042E00006D0022906D0032908D105E00120704735
:1042F0000120FCE70120FAE70120F8E70120F6E7BA
:104300000020F4E7300100100D4802684FF08050A3
:10431000D0F83411082A11D131B1012906D002296F
:1043200006D0032908D105E0012070470020FCE7F2
:104330000020FAE70020F8E70020F6E70020F4E785
:104340003001001010B5044609B90E2010BD92FBD3
:10435000F3F003FB102008B10920F7E721600020EB
:104360006060A060A281E38100BFEFE770B5044602
:104370000D4629462046FBF7E9FF18B12A88216837
:10438000881870BD0020FCE770B505460C462088F3
:104390006188884204D12846FCF71AF8012070BDD4
:1043A0000020FCE770B504460D4629462046FBF781
:1043B000F2FF18B16A882168881870BD0020FCE7F8
:1043C00070B505460C4620886188884204D128468D
:1043D000FBF7D8FF012070BD0020FCE710B50446B4
:1043E0000021204600F021F810BD10B50446002140
:1043F000204600F025F810BD10B5044601212046E6
:1044000000F03FF810BD10B504460121204600F031
:1044100022F810BDF8B504460D466A4629462046E6
:10442000FBF755FF06460098F8BDF8B504460D4663
:104430006A4629462046FBF730FF06460098F8BD3D
:10444000F8B504460D466A4629462046FBF725FF87
:1044500006463046F8BDF8B504460D466A4629467C
:104460002046FBF70DFF06463046F8BDF8B504467A
:104470000D466A4629462046FBF7F6FE06463046BC
:10448000F8BDF8B504460D466A4629462046FBF7B6
:10449000F7FE06460098F8BDF8B504460D466A4694
:1044A00029462046FBF720FF06460098F8BD00008D
:1044B00070B5044624B914A14FF49270FDF776FB51
:1044C00000250020FDF788FA2068006861688842AE
:1044D00015D920680068401E2268106001782046C7
:1044E00000F098F80546207A21680978401AC6B28B
:1044F00020680079B04201DA2068067100BF002010
:10450000FDF796FA284670BD2E2E5C2E2E5C2E2EC0
:104510005C6472765C636F6D706F6E656E74735CF5
:104520006C69627261726965735C62616C6C6F6305
:104530005C6E72665F62616C6C6F632E630000007C
:1045400070B504460D461CB905A1F520FDF72EFBFC
:10455000E068281A218BB0FBF1F0C0B270BD0000FA
:104560002E2E5C2E2E5C2E2E5C6472765C636F6D3C
:10457000706F6E656E74735C6C696272617269658E
:10458000735C62616C6C6F635C6E72665F62616CBF
:104590006C6F632E6300000070B504460D4624B9AD
:1045A0000EA140F24710FDF701FB25B90BA14FF416
:1045B000A470FDF7FBFA2E460020FDF70DFA3146F8
:1045C0002046FFF7BDFF21680A68511C2368196067
:1045D00010700020FDF72CFA70BD00002E2E5C2E0E
:1045E0002E5C2E2E5C6472765C636F6D706F6E65F0
:1045F0006E74735C6C69627261726965735C62612E
:104600006C6C6F635C6E72665F62616C6C6F632E64
:104610006300000070B504460D461CB904A1E820F3
:10462000FDF7C4FA218BE06805FB010070BD0000B6
:104630002E2E5C2E2E5C2E2E5C6472765C636F6D6B
:10464000706F6E656E74735C6C69627261726965BD
:10465000735C62616C6C6F635C6E72665F62616CEE
:104660006C6F632E6300000070B5044600BF0CB988
:104670000E2070BD00BF206818B91BA1FF20FDF7F8
:1046800095FA606820B918A14FF48070FDF78EFA92
:10469000A06820B914A140F20110FDF787FAE06884
:1046A00020B911A14FF48170FDF780FA208B20B959
:1046B0000DA140F20310FDF779FA207A2179401A12
:1046C000C5B2D4E90010086005E020680168481C04
:1046D000226810600D70281EA5F10101CDB2F4D141
:1046E0002168087100BFC4E72E2E5C2E2E5C2E2E92
:1046F0005C6472765C636F6D706F6E656E74735C14
:104700006C69627261726965735C62616C6C6F6323
:104710005C6E72665F62616C6C6F632E630000009A
:104720002DE9F74F8CB0824600BFDAF80800D0F8C8
:104730004801C0F3400038B100221146504600F055
:104740000DFD0FB0BDE8F08F0D98012805D92EA200
:104750000221504600F0A2FCF3E730483049401AED
:104760001C21B0FBF1F00B90002547E0C5EBC50024
:104770002B4901EB8004B4F818B0208BA0EB0B00A0
:104780000A90D4E90110461AA146B9F1000F04D1EC
:1047900024A140F24510FDF709FAD9F80000077985
:1047A000A146B9F1000F04D11EA140F25510FDF74A
:1047B000FDF999F80800D9F800100978401A00F0BE
:1047C000FF086069099064207843B0FBF6F9642023
:1047D00018FB00F0B0FBF6F0CDE904690146CDE925
:1047E000067608900A98CDE900B0CDE902181B4A78
:1047F00008215046099B00F051FC6D1C0B98854226
:10480000B4D300BF9DE70000426164206172677508
:104810006D656E7420636F756E74000068C400006F
:1048200030C400002E2E5C2E2E5C2E2E5C64727620
:104830005C636F6D706F6E656E74735C6C696272D1
:1048400061726965735C62616C6C6F635C6E7266E9
:104850005F62616C6C6F632E68000000B4B600008C
:1048600030B502460B46D40802F007020120904002
:104870001D5D284030BD00002DE9F04781460D4602
:1048800014461E4654F8048C4046FDF79BF9074633
:104890002FB123462A4639464846B04705E04346ED
:1048A00003A20221484600F0F9FBBDE8F0870000B2
:1048B000496E76616C6964206261636B656E643A0F
:1048C0002025730D0A0000002DE9F04104460D4635
:1048D00016461F46204600F0F9FD38B13A463146EB
:1048E000204600F03BFC0120BDE8F08145B1A06806
:1048F00004A202214368204600F0D0FB0120F3E728
:104900000020F1E725733A2077726F6E672070619F
:1049100072616D6574657220636F756E740A000054
:1049200070B504460D46164624B921A140F65F50E5
:10493000FDF73CF9A06818B1606808B1206820B99B
:104940001BA14FF45660FDF731F9022D09D1204625
:1049500000F0BCFD28B100221146204600F0FEFB0D
:1049600070BD24B912A140F66850FDF71FF9206907
:1049700020B90FA140F66850FDF718F9184A19A19F
:10498000206900F0F3FE24B909A140F66950FDF753
:104990000DF9206920B906A140F66950FDF706F926
:1049A000114A10A1206900F0E1FE00BFD8E7000025
:1049B0002E2E5C2E2E5C2E2E5C6472765C636F6DE8
:1049C000706F6E656E74735C6C696272617269653A
:1049D000735C636C695C6E72665F636C692E630006
:1049E000B3AD000025730000B7AD000070B50446FC
:1049F0000D46164624B912A140F66E50FDF7D6F8C2
:104A0000A06818B1606808B1206820B90CA140F610
:104A10006F50FDF7CBF8012D05D0022D09D12046AE
:104A200000F054FD28B100221146204600F096FB0C
:104A300070BD0FA20221204600F030FB00BFF7E757
:104A40002E2E5C2E2E5C2E2E5C6472765C636F6D57
:104A5000706F6E656E74735C6C69627261726965A9
:104A6000735C636C695C6E72665F636C692E630075
:104A7000506C656173652073706563696679206148
:104A800020737562636F6D6D616E642E0A000000A5
:104A90007CB506460C461546012C05D10022114670
:104AA000304600F05BFB7CBD022C0AD10BA168688C
:104AB000CDE900100FA2022130462B6800F0EEFA7B
:104AC000F1E7022C01D9012000E00020014600237B
:104AD0001A463046FFF7F8FE00BFE4E720756E6B1C
:104AE0006E6F776E20706172616D657465723A20C9
:104AF0000000000025733A257325730A00000000AA
:104B000070B504460D461646012D01D0012000E087
:104B10000020014600231A462046FFF7D5FE00B1CB
:104B200070BD0020A168C1F83801E16849680868D3
:104B300002F03AF800BFF3E72DE9FE4305460F46C1
:104B40009146012F01D0012000E000200146002302
:104B50001A462846FFF7B8FE08B1BDE8FE83E868AC
:104B600040680468204601F0F9FFC6B2642016FBD5
:104B700000F0A168B0FBF1F000F0FF08A068CDE9FB
:104B800000860290A86804A20021D0F83831284697
:104B900000F084FA00BFE0E74C6F7374206C6F671D
:104BA000733A2025750A4D6178206C6F6720717506
:104BB000657565207574696C697A6174696F6E3AA0
:104BC0002025752525205B25752F25755D0A00009C
:104BD0007CB504460D46164624B918A140F68F5000
:104BE000FCF7E4FFA06818B1606808B1206820B93C
:104BF00012A14FF45960FCF7D9FF012D05D1002215
:104C00001146204600F0AAFA7CBD022D01D00120F9
:104C100000E00020014600231A462046FFF754FE1C
:104C200000B1F1E711A17068CDE9001015A20221D1
:104C30002046336800F032FA00BFE5E72E2E5C2EE6
:104C40002E5C2E2E5C6472765C636F6D706F6E6589
:104C50006E74735C6C69627261726965735C636CBB
:104C6000695C6E72665F636C692E630020756E6BA3
:104C70006E6F776E20706172616D657465723A2037
:104C80000000000025733A257325730A0000000018
:104C900070B504460D461646012D01D0012000E0F6
:104CA0000020014600231A462046FFF70DFE00B102
:104CB00070BDA068D0F8480120F00400A168C1F8D8
:104CC000480100BFF4E770B504460D461646012DB5
:104CD00001D0012000E00020014600231A462046B2
:104CE000FFF7F2FD00B170BDA068D0F8480120F0D8
:104CF0000400001DA168C1F8480100BFF3E70000EF
:104D00002DE9FC4106460C461546022C01D901202E
:104D100000E00020014600231A463046FFF7D4FD8C
:104D200008B1BDE8FC81022C0AD10DA16868CDE96B
:104D3000001011A2022130462B6800F0AFF9F0E715
:104D40003046FDF78BFA08B10EA000E00EA0074632
:104D50003B460EA20021304600F0A0F900BFE0E77C
:104D600020756E6B6E6F776E20706172616D657409
:104D700065723A200000000025733A257325730AF6
:104D8000000000006F6E00006F6666004563686F8C
:104D9000207374617475733A2025730A0000000053
:104DA00070B504460D461646012D01D0012000E0E5
:104DB0000020014600231A462046FFF785FD00B17A
:104DC00070BD00BFA068D0F8480120F00800A168BD
:104DD000C1F8480100BF00BFF2E770B504460D46B8
:104DE0001646012D01D0012000E0002001460023DD
:104DF0001A462046FFF768FD00B170BD00BFA068ED
:104E0000D0F8480120F008000830A168C1F8480136
:104E100000BF00BFF1E700002DE9FF4104460F4647
:104E2000904624B924A140F6C750FCF7BFFEA06805
:104E300018B1606808B1206820B91FA140F6C850B9
:104E4000FCF7B4FE012F01D0012000E00020014654
:104E500000231A462046FFF737FD08B1BDE8FF8161
:104E60000025A068D0F840611EE00EB1082D00D3E7
:104E70001BE00023092201A9304601F017FD9DF82F
:104E80000C00421CA06800F1A0010923304601F08B
:104E90000DFD029EA068A0302B466D1C12A20021C1
:104EA0000090204600F0FAF8DFE700BF0020A1687C
:104EB00081F8A00000BFD1E72E2E5C2E2E5C2E2E96
:104EC0005C6472765C636F6D706F6E656E74735C3C
:104ED0006C69627261726965735C636C695C6E7245
:104EE000665F636C692E63005B2533645D20257308
:104EF0000A0000007CB504460D46164624B91FA1E1
:104F000040F62860FCF752FEA06818B1606808B14E
:104F1000206820B919A140F62960FCF747FE012D51
:104F200013D1A06800F11802511C204603F0BCFF09
:104F300050B15021A06841761821A06801761BA2CB
:104F40000421204600F0AAF87CBD022D01D90120E1
:104F500000E00020014600231A462046FFF7B4FC7B
:104F600000B1F1E720A17068CDE9001024A2022170
:104F70002046336800F092F800BFE5E72E2E5C2E45
:104F80002E5C2E2E5C6472765C636F6D706F6E6546
:104F90006E74735C6C69627261726965735C636C78
:104FA000695C6E72665F636C692E63004E6F20727F
:104FB0006573706F6E73652066726F6D20746865BF
:104FC000207465726D696E616C2C20617373756DF0
:104FD00065642038307832342073637265656E20E2
:104FE00073697A650A00000020756E6B6E6F776ECC
:104FF00020706172616D657465723A200000000076
:1050000025733A257325730A0000000070B5044625
:105010000D461646012D01D0012000E0002001467A
:1050200000231A462046FFF74FFC00B170BD24B99B
:105030000CA140F62160FCF7B9FD206920B909A157
:1050400040F62160FCF7B2FD124A13A1206900F07E
:105050008DFB5021A06841761821A068017600BF21
:10506000E4E700002E2E5C2E2E5C2E2E5C64727601
:105070005C636F6D706F6E656E74735C6C69627289
:1050800061726965735C636C695C6E72665F636CA8
:10509000692E6300BCAD0000257300000FB47CB521
:1050A00004460D46089820B920A140F66130FCF76F
:1050B0007DFD24B91DA140F66230FCF777FDA068A4
:1050C00018B1606808B1206820B918A140F66330B3
:1050D000FCF76CFD0020019009A80190A068D0F8B1
:1050E0004801C0F38000B8B1A068C07EA84213D0C8
:1050F0006846A168B1F81B10018000BF2946204610
:1051000005F030FC01AA2069089900F09BFB694674
:10511000204605F053FC04E001AA2069089900F03C
:1051200091FB002001907CBC5DF814FB2E2E5C2EC0
:105130002E5C2E2E5C6472765C636F6D706F6E6594
:105140006E74735C6C69627261726965735C636CC6
:10515000695C6E72665F636C692E63002DE9F04FC7
:1051600089B006460C46914626B9B6A140F6E23013
:10517000FCF71CFDB06818B1706808B1306820B940
:10518000B0A140F6E330FCF711FD4FF00008B9483C
:10519000FDF77CF90546B848FDF778F9281A87B27B
:1051A000B6480090B068B6A2082143683046FFF7C1
:1051B00075FFB1684868FDF769F90546AF48FDF726
:1051C00065F928441FFA80F8B068002342468168D8
:1051D0003046FDF7E7FFACA200213046FFF75EFF47
:1051E000B9F1000F26D02CB3002521E005EB4501D5
:1051F00004EB81014868FDF749F9834605EB450159
:1052000054F82100FDF742F95844B8420FD905EB94
:10521000450104EB81014868FDF738F9834605EB49
:10522000450154F82100FDF731F9584487B26D1C4F
:105230004D45DBD39048FDF729F9801C384487B2EF
:105240008C483B4693A2082100903046FFF726FF8A
:10525000F81C1FFA80F80023424690A13046FDF763
:10526000A1FF002C7ED0002585E005EB450004EB76
:1052700080004068F0B305EB450054F82000C8B347
:1052800005EB450054F820007B49CDE9001005EB03
:10529000450004EB800086A2082143683046FFF7F2
:1052A000FDFEB81C1FFA80F805EB450104EB8101F7
:1052B0004868FDF7EBF8834605EB450154F82100FB
:1052C000FDF7E4F883440BF1020B6B48FDF7DEF8C1
:1052D0005844A8EB0000C0B2014602903046FDF7EA
:1052E00007FC3A213046FDF78DF808F101001FFA5E
:1052F00080F829E0FFE705EB450004EB80004068FB
:1053000078B105EB450004EB800040683B4661A2A4
:10531000082100903046FFF7C1FEF81C1FFA80F804
:1053200012E005EB450054F8200068B105EB45009C
:1053300054F820003B4657A2082100903046FFF762
:10534000ADFEF81C1FFA80F805EB450004EB800069
:10535000806860B105EB450004EB80000023424605
:10536000816800E00AE03046FDF71CFF02E03046AD
:10537000FDF7FCFA6D1C4D45FFF477AFB068C068CF
:1053800010B909B0BDE8F08FB068C0680490002083
:10539000039080460027824617E005A852460AF18E
:1053A000010A03AB012100900498FDF72FFA03983E
:1053B00000B90BE003990868FDF768F8B84204D912
:1053C00003990868FDF762F887B2E6E700BFBAF113
:1053D000010F00D1D5E739A200213046FFF75EFE6C
:1053E0004FF0000A2AE005A852460AF1010A03AB71
:1053F000012100900498FDF709FA039800B91EE016
:10540000B81C1FFA80F803980068434621A20821BF
:1054100000903046FFF742FE08F103001FFA80F8C3
:105420000398406838B103980023424641683046EB
:10543000FDF7B8FE02E03046FDF798FAD3E700BF6B
:1054400000BF9EE72E2E5C2E2E5C2E2E5C647276A4
:105450005C636F6D706F6E656E74735C6C696272A5
:1054600061726965735C636C695C6E72665F636CC4
:10547000692E6300A4AD0000A1AD0000AFAD000037
:1054800025732573000000004F7074696F6E733AC6
:105490000A0000002020252D2A733A0053686F77F8
:1054A00020636F6D6D616E642068656C702E000006
:1054B0002020257325732573000000005375626357
:1054C0006F6D6D616E64733A0A0000000146886872
:1054D000D0F84801C0F34000704701468868D0F812
:1054E0004801C0F34000704770B504460D461646AB
:1054F0000023324629462046FDF7F2F870BD0146EA
:105500004FF08040405808B1012070470020FCE770
:1055100008B500224FF080410A500958009100BFA1
:1055200008BD000001490860704700000803004002
:1055300010B500240D48007808B185240EE0002045
:105540000A49886048600861C860094802F0C0F8EC
:10555000044602F08BF801200449087002F07CF840
:1055600010B1012001498870204610BD8C18002020
:10557000E527000070B505460848007808B1852089
:1055800070BD05B9064D284602F010FA044614B95C
:105590000120024908702046F2E700007908002047
:1055A00016AB00002DE9F04188B004460E461746C0
:1055B00025781E4840F825701D49306941F82500BE
:1055C000012D05D1707F18B91AA17620FCF7EEFAEB
:1055D000707F25494855202231466846FAF730FF4A
:1055E00004954FF0000820781F49085C50B10FB1B6
:1055F0001E4800E0002002466946201D02F05AFDC8
:1056000080460EE020781849085C50B90FB1184860
:1056100000E000200246694604F10C0002F058FB4D
:105620008046404608B0BDE8F08100007C080020BC
:10563000840800202E2E5C2E2E5C2E2E5C6472764A
:105640005C696E746567726174696F6E5C6E7266B8
:10565000785C6C65676163795C6E72665F647276B4
:105660005F756172742E63008C080020199600002B
:105670001D9400002DE9F04104460D461646002712
:1056800020780C49085C30B132462946201D02F0D2
:1056900071FD07460AE020780649085C30B93246B9
:1056A000294604F10C0002F077FB07463846BDE8B6
:1056B000F08100008C0800202DE9F04104460D46E1
:1056C0001646002720780C49085C30B1324629463E
:1056D000201D02F043FE07460AE020780649085CD8
:1056E00030B93246294604F10C0002F02FFC07467F
:1056F0003846BDE8F08100008C0800202DE9F0411B
:1057000004460D461646002720780C49085C30B147
:1057100032462946201D02F021FE07460AE0207885
:105720000649085C30B93246294604F10C0002F003
:105730000DFC07463846BDE8F08100008C080020CB
:1057400010B5044620780849085C18B1201D02F005
:10575000B7FE07E020780449085C18B904F10C0092
:1057600002F07CFC10BD00008C0800200FB438B59E
:1057700004461CB913A14220FCF718FA606918B955
:1057800010A14320FCF712FA206818B90DA144209B
:10579000FCF70CFA606818B90AA14520FCF706FA74
:1057A000059810B938BC5DF814FB0020009006A8DD
:1057B00000906A462046059900F044F800200090C9
:1057C00000BFEFE72E2E5C2E2E5C2E2E5C647276D0
:1057D0005C65787465726E616C5C667072696E741B
:1057E000665C6E72665F667072696E74662E6300C8
:1057F00070B504461CB908A13120FCF7D7F9A068A0
:1058000000B970BDD4E90403A2682168984700205C
:10581000A06000BFF5E700002E2E5C2E2E5C2E2E21
:105820005C6472765C65787465726E616C5C6670DF
:1058300072696E74665C6E72665F667072696E74B1
:10584000662E63002DE9FC5F80460D461446B8F1D4
:10585000000F04D187A140F25220FCF7A7F9D8F835
:10586000140020B983A14FF41570FCF79FF9D8F804
:10587000000020B97FA140F25520FCF797F9D8F835
:10588000040020B97BA140F25620FCF78FF90DB936
:10589000BDE8FC9F00BF2E786D1C06B9E1E0252E07
:1058A00070D100274FF0010A00BF2E782B2E0CD0AC
:1058B0002D2E02D0302E0CD103E047F001076D1CD5
:1058C0000AE047F002076D1C06E047F004076D1C74
:1058D00002E04FF0000A00BF00BFBAF1000FE4D1B0
:1058E0004FF0000900BF2A2E06D12168081D206054
:1058F000086881446D1C0DE02E78302E01DB392EB6
:1059000000DD07E06D1CA6F1300009EB890100EB1A
:105910004109E8E700BF4FF0000B2E782E2E10D182
:105920006D1C00BF2E78302E01DB392E00DD07E024
:105930006D1CA6F130000BEB8B0100EB410BF1E786
:1059400000BF2E7800BF6C2E01D0682E02D16D1CD6
:105950002E7800E000E0F6E700BF692E21D008DCD9
:10596000252E6DD0582E39D0632E0CD0642E6CD1DC
:1059700016E0702E4CD0732E3ED0752E1FD0782E90
:1059800063D12AE065E02168081D2060D1F800A0FD
:105990000AF0FF00019040460199FCF7CBF955E071
:1059A00000BF2168081D2060D1F800A05B460A22D4
:1059B00051464046CDE90097FDF7E1FC46E02168FD
:1059C000081D2060D1F800A05B460A2251464046DF
:1059D000CDE9009703F0D6FE38E000BF2168081D2E
:1059E0002060D1F800A05B46102251464046CDE928
:1059F000009703F0C7FE29E02168081D20600868B1
:105A000001903B464A464046019903F013FA1DE0D7
:105A10002168081D2060D1F800A030214046FCF725
:105A200089F978214046FCF785F9002008210B46CA
:105A30001022CDE900105146404603F0A3FE05E0D8
:105A400025214046FCF776F900E000BF00BF6D1C41
:105A500003E031464046FCF76DF9287800287FF4D2
:105A60001AAF00BF98F80C0010B14046FFF7C0FE17
:105A700000BF0DE72E2E5C2E2E5C2E2E5C647276FF
:105A80005C65787465726E616C5C667072696E7468
:105A9000665C6E72665F667072696E74665F666F72
:105AA000726D61742E6300002DE9FF470C461546A8
:105AB0001E46DDE90C78684600F0ACF8814644EA01
:105AC000450040EA860040EA072040EA084109F51F
:105AD000E060009A40F82210BDE8FF872DE9FF47FB
